{"abi":[{"type":"constructor","inputs":[{"name":"initialOracle","type":"address","internalType":"address"}],"stateMutability":"nonpayable"},{"type":"function","name":"APPEAL_FEE","inputs":[],"outputs":[{"name":"","type":"uint256","internalType":"uint256"}],"stateMutability":"view"},{"type":"function","name":"APPEAL_WINDOW","inputs":[],"outputs":[{"name":"","type":"uint256","internalType":"uint256"}],"stateMutability":"view"},{"type":"function","name":"MAX_ROOMS","inputs":[],"outputs":[{"name":"","type":"uint8","internalType":"uint8"}],"stateMutability":"view"},{"type":"function","name":"MINIMUM_DEPOSIT","inputs":[],"outputs":[{"name":"","type":"uint256","internalType":"uint256"}],"stateMutability":"view"},{"type":"function","name":"NOISE_THRESHOLD_DB","inputs":[],"outputs":[{"name":"","type":"uint256","internalType":"uint256"}],"stateMutability":"view"},{"type":"function","name":"PENALTY_HIGH","inputs":[],"outputs":[{"name":"","type":"uint256","internalType":"uint256"}],"stateMutability":"view"},{"type":"function","name":"PENALTY_LOW","inputs":[],"outputs":[{"name":"","type":"uint256","internalType":"uint256"}],"stateMutability":"view"},{"type":"function","name":"PENALTY_MED","inputs":[],"outputs":[{"name":"","type":"uint256","internalType":"uint256"}],"stateMutability":"view"},{"type":"function","name":"VOICE_CREDITS","inputs":[],"outputs":[{"name":"","type":"uint256","internalType":"uint256"}],"stateMutability":"view"},{"type":"function","name":"VOTE_PASS_THRESHOLD","inputs":[],"outputs":[{"name":"","type":"uint256","internalType":"uint256"}],"stateMutability":"view"},{"type":"function","name":"VOTE_QUORUM","inputs":[],"outputs":[{"name":"","type":"uint256","internalType":"uint256"}],"stateMutability":"view"},{"type":"function","name":"addOracle","inputs":[{"name":"newOracle","type":"address","internalType":"address"}],"outputs":[],"stateMutability":"nonpayable"},{"type":"function","name":"addressToRoom","inputs":[{"name":"","type":"address","internalType":"address"}],"outputs":[{"name":"","type":"uint8","internalType":"uint8"}],"stateMutability":"view"},{"type":"function","name":"createAppeal","inputs":[{"name":"violationId","type":"uint256","internalType":"uint256"},{"name":"reason","type":"string","internalType":"string"}],"outputs":[],"stateMutability":"nonpayable"},{"type":"function","name":"creditsUsed","inputs":[{"name":"","type":"uint256","internalType":"uint256"},{"name":"","type":"address","internalType":"address"}],"outputs":[{"name":"","type":"uint256","internalType":"uint256"}],"stateMutability":"view"},{"type":"function","name":"deposit","inputs":[],"outputs":[],"stateMutability":"payable"},{"type":"function","name":"executeProposal","inputs":[{"name":"proposalId","type":"uint256","internalType":"uint256"}],"outputs":[],"stateMutability":"nonpayable"},{"type":"function","name":"getDeposit","inputs":[{"name":"roomIndex","type":"uint8","internalType":"uint8"}],"outputs":[{"name":"free","type":"uint256","internalType":"uint256"},{"name":"locked","type":"uint256","internalType":"uint256"}],"stateMutability":"view"},{"type":"function","name":"getVotes","inputs":[{"name":"proposalId","type":"uint256","internalType":"uint256"}],"outputs":[{"name":"yes","type":"uint256","internalType":"uint256"},{"name":"no","type":"uint256","internalType":"uint256"}],"stateMutability":"view"},{"type":"function","name":"hasVoted","inputs":[{"name":"","type":"uint256","internalType":"uint256"},{"name":"","type":"address","internalType":"address"}],"outputs":[{"name":"","type":"bool","internalType":"bool"}],"stateMutability":"view"},{"type":"function","name":"isDepositSufficient","inputs":[{"name":"roomIndex","type":"uint8","internalType":"uint8"}],"outputs":[{"name":"","type":"bool","internalType":"bool"}],"stateMutability":"view"},{"type":"function","name":"isOracle","inputs":[{"name":"","type":"address","internalType":"address"}],"outputs":[{"name":"","type":"bool","internalType":"bool"}],"stateMutability":"view"},{"type":"function","name":"isTenant","inputs":[{"name":"","type":"address","internalType":"address"}],"outputs":[{"name":"","type":"bool","internalType":"bool"}],"stateMutability":"view"},{"type":"function","name":"landlord","inputs":[],"outputs":[{"name":"","type":"address","internalType":"address"}],"stateMutability":"view"},{"type":"function","name":"oracleCount","inputs":[],"outputs":[{"name":"","type":"uint256","internalType":"uint256"}],"stateMutability":"view"},{"type":"function","name":"proposalCount","inputs":[],"outputs":[{"name":"","type":"uint256","internalType":"uint256"}],"stateMutability":"view"},{"type":"function","name":"proposals","inputs":[{"name":"","type":"uint256","internalType":"uint256"}],"outputs":[{"name":"violationId","type":"uint256","internalType":"uint256"},{"name":"appellant","type":"address","internalType":"address"},{"name":"createdAt","type":"uint256","internalType":"uint256"},{"name":"yesVotes","type":"uint256","internalType":"uint256"},{"name":"noVotes","type":"uint256","internalType":"uint256"},{"name":"voterCount","type":"uint256","internalType":"uint256"},{"name":"executed","type":"bool","internalType":"bool"},{"name":"passed","type":"bool","internalType":"bool"}],"stateMutability":"view"},{"type":"function","name":"registerTenant","inputs":[{"name":"roomIndex","type":"uint8","internalType":"uint8"},{"name":"tenantAddr","type":"address","internalType":"address"}],"outputs":[],"stateMutability":"nonpayable"},{"type":"function","name":"releaseRewards","inputs":[{"name":"violationId","type":"uint256","internalType":"uint256"}],"outputs":[],"stateMutability":"nonpayable"},{"type":"function","name":"removeOracle","inputs":[{"name":"target","type":"address","internalType":"address"}],"outputs":[],"stateMutability":"nonpayable"},{"type":"function","name":"reportNoise","inputs":[{"name":"roomIndex","type":"uint8","internalType":"uint8"},{"name":"decibels","type":"uint256","internalType":"uint256"},{"name":"nonce","type":"uint256","internalType":"uint256"},{"name":"signature","type":"bytes","internalType":"bytes"}],"outputs":[],"stateMutability":"nonpayable"},{"type":"function","name":"reportNonce","inputs":[],"outputs":[{"name":"","type":"uint256","internalType":"uint256"}],"stateMutability":"view"},{"type":"function","name":"tenantCount","inputs":[],"outputs":[{"name":"","type":"uint8","internalType":"uint8"}],"stateMutability":"view"},{"type":"function","name":"tenants","inputs":[{"name":"","type":"uint256","internalType":"uint256"}],"outputs":[{"name":"addr","type":"address","internalType":"address"},{"name":"deposit","type":"uint256","internalType":"uint256"},{"name":"lockedDeposit","type":"uint256","internalType":"uint256"},{"name":"registered","type":"bool","internalType":"bool"}],"stateMutability":"view"},{"type":"function","name":"violationCount","inputs":[],"outputs":[{"name":"","type":"uint256","internalType":"uint256"}],"stateMutability":"view"},{"type":"function","name":"violationLocks","inputs":[{"name":"","type":"uint256","internalType":"uint256"}],"outputs":[{"name":"rewardPerRecipient","type":"uint256","internalType":"uint256"},{"name":"released","type":"bool","internalType":"bool"}],"stateMutability":"view"},{"type":"function","name":"violations","inputs":[{"name":"","type":"uint256","internalType":"uint256"}],"outputs":[{"name":"roomIndex","type":"uint8","internalType":"uint8"},{"name":"decibels","type":"uint256","internalType":"uint256"},{"name":"reportedAt","type":"uint256","internalType":"uint256"},{"name":"penaltyPaid","type":"uint256","internalType":"uint256"},{"name":"appealed","type":"bool","internalType":"bool"}],"stateMutability":"view"},{"type":"function","name":"vote","inputs":[{"name":"proposalId","type":"uint256","internalType":"uint256"},{"name":"approve","type":"bool","internalType":"bool"},{"name":"voteCount","type":"uint256","internalType":"uint256"}],"outputs":[],"stateMutability":"nonpayable"},{"type":"function","name":"withdraw","inputs":[],"outputs":[],"stateMutability":"nonpayable"},{"type":"event","name":"AppealCreated","inputs":[{"name":"proposalId","type":"uint256","indexed":true,"internalType":"uint256"},{"name":"violationId","type":"uint256","indexed":false,"internalType":"uint256"},{"name":"appellant","type":"address","indexed":false,"internalType":"address"},{"name":"reason","type":"string","indexed":false,"internalType":"string"}],"anonymous":false},{"type":"event","name":"Deposited","inputs":[{"name":"roomIndex","type":"uint8","indexed":true,"internalType":"uint8"},{"name":"tenant","type":"address","indexed":false,"internalType":"address"},{"name":"amount","type":"uint256","indexed":false,"internalType":"uint256"}],"anonymous":false},{"type":"event","name":"NoiseReported","inputs":[{"name":"violationId","type":"uint256","indexed":true,"internalType":"uint256"},{"name":"roomIndex","type":"uint8","indexed":false,"internalType":"uint8"},{"name":"decibels","type":"uint256","indexed":false,"internalType":"uint256"},{"name":"penalty","type":"uint256","indexed":false,"internalType":"uint256"}],"anonymous":false},{"type":"event","name":"OracleAdded","inputs":[{"name":"oracle","type":"address","indexed":true,"internalType":"address"}],"anonymous":false},{"type":"event","name":"OracleRemoved","inputs":[{"name":"oracle","type":"address","indexed":true,"internalType":"address"}],"anonymous":false},{"type":"event","name":"PenaltyApplied","inputs":[{"name":"violationId","type":"uint256","indexed":true,"internalType":"uint256"},{"name":"offenderRoom","type":"uint8","indexed":false,"internalType":"uint8"},{"name":"penaltyAmount","type":"uint256","indexed":false,"internalType":"uint256"},{"name":"rewardPerTenant","type":"uint256","indexed":false,"internalType":"uint256"}],"anonymous":false},{"type":"event","name":"ProposalExecuted","inputs":[{"name":"proposalId","type":"uint256","indexed":true,"internalType":"uint256"},{"name":"passed","type":"bool","indexed":false,"internalType":"bool"}],"anonymous":false},{"type":"event","name":"RewardsReleased","inputs":[{"name":"violationId","type":"uint256","indexed":true,"internalType":"uint256"}],"anonymous":false},{"type":"event","name":"TenantRegistered","inputs":[{"name":"roomIndex","type":"uint8","indexed":true,"internalType":"uint8"},{"name":"tenant","type":"address","indexed":false,"internalType":"address"}],"anonymous":false},{"type":"event","name":"VoteCast","inputs":[{"name":"proposalId","type":"uint256","indexed":true,"internalType":"uint256"},{"name":"voter","type":"address","indexed":false,"internalType":"address"},{"name":"approve","type":"bool","indexed":false,"internalType":"bool"},{"name":"voteCount","type":"uint256","indexed":false,"internalType":"uint256"}],"anonymous":false},{"type":"event","name":"Withdrawn","inputs":[{"name":"roomIndex","type":"uint8","indexed":true,"internalType":"uint8"},{"name":"tenant","type":"address","indexed":false,"internalType":"address"},{"name":"amount","type":"uint256","indexed":false,"internalType":"uint256"}],"anonymous":false},{"type":"error","name":"AlreadyAppealed","inputs":[]},{"type":"error","name":"AlreadyExecuted","inputs":[]},{"type":"error","name":"AlreadyRegistered","inputs":[]},{"type":"error","name":"AlreadyVoted","inputs":[]},{"type":"error","name":"AppealWindowClosed","inputs":[]},{"type":"error","name":"AppealWindowStillOpen","inputs":[]},{"type":"error","name":"AppellantCannotVote","inputs":[]},{"type":"error","name":"BelowNoiseThreshold","inputs":[]},{"type":"error","name":"ECDSAInvalidSignature","inputs":[]},{"type":"error","name":"ECDSAInvalidSignatureLength","inputs":[{"name":"length","type":"uint256","internalType":"uint256"}]},{"type":"error","name":"ECDSAInvalidSignatureS","inputs":[{"name":"s","type":"bytes32","internalType":"bytes32"}]},{"type":"error","name":"InsufficientCredits","inputs":[]},{"type":"error","name":"InsufficientDeposit","inputs":[]},{"type":"error","name":"InsufficientDepositForFee","inputs":[]},{"type":"error","name":"InvalidNonce","inputs":[]},{"type":"error","name":"InvalidRoom","inputs":[]},{"type":"error","name":"InvalidVoteCount","inputs":[]},{"type":"error","name":"MinOraclesRequired","inputs":[]},{"type":"error","name":"NotAnOracle","inputs":[]},{"type":"error","name":"NotEligibleToVote","inputs":[]},{"type":"error","name":"NotLandlord","inputs":[]},{"type":"error","name":"NotTenant","inputs":[]},{"type":"error","name":"NotThePenalizedTenant","inputs":[]},{"type":"error","name":"NothingToWithdraw","inputs":[]},{"type":"error","name":"OracleAlreadyAdded","inputs":[]},{"type":"error","name":"OracleNotFound","inputs":[]},{"type":"error","name":"ProposalNotFound","inputs":[]},{"type":"error","name":"QuorumNotReached","inputs":[]},{"type":"error","name":"ReentrancyGuardReentrantCall","inputs":[]},{"type":"error","name":"RewardsAlreadyReleased","inputs":[]},{"type":"error","name":"RoomOccupied","inputs":[]},{"type":"error","name":"TransferFailed","inputs":[]},{"type":"error","name":"ViolationNotFound","inputs":[]},{"type":"error","name":"VotingClosed","inputs":[]},{"type":"error","name":"VotingStillOpen","inputs":[]},{"type":"error","name":"ZeroAddress","inputs":[]},{"type":"error","name":"ZeroDeposit","inputs":[]}],"bytecode":{"object":"0x60a060405234801562000010575f80fd5b50604051620025da380380620025da8339810160408190526200003391620000d6565b60017f9b779b17422d0df92223018b32b4d1fa46e071723d6817e2486d003becc55f00556001600160a01b0381166200007f5760405163d92e233d60e01b815260040160405180910390fd5b336080526001600160a01b0381165f81815260208190526040808220805460ff191660019081179091558055517e47706786c922d17b39285dc59d696bafea72c0b003d3841ae1202076f4c2e49190a25062000105565b5f60208284031215620000e7575f80fd5b81516001600160a01b0381168114620000fe575f80fd5b9392505050565b6080516124a06200013a5f395f818161075901528181610ba201528181611404015281816116a201526118be01526124a05ff3fe608060405260043610610228575f3560e01c8063bd2ba85d11610129578063d7eb6929116100a8578063f19451d81161006d578063f19451d81461052e578063f269a21e146107cd578063f8703bb8146107e1578063fdc85fc414610800578063ff9810991461081f575f80fd5b8063d7eb692914610719578063da35c66414610733578063dc1997ea14610748578063de19012314610793578063df5dd1a5146107ae575f80fd5b8063c7e38cb4116100ee578063c7e38cb41461068b578063cb3655ca146106bf578063d0e30db0146106de578063d3ee3b94146106e6578063d46a5d7e146106fa575f80fd5b8063bd2ba85d146105c4578063bff074631461060f578063c101656a1461062e578063c293437c1461065c578063c7761fab14610677575f80fd5b806343859632116101b55780638f3d4e9c1161017a5780638f3d4e9c146104d85780639b604b0b146104ec578063a97e5c9314610500578063aa320e6a1461052e578063b995bb9514610549575f80fd5b80634385963214610416578063523889411461044f578063613d8fcc146104645780636de5b7581461047957806385bc0c59146104c3575f80fd5b806322be21bd116101fb57806322be21bd1461034f578063267dcb801461039157806337f2e48a146103b05780633ccfd60b146103ee578063427eaabb14610402575f80fd5b8063013cf08b1461022c5780630a6387fd146102e45780630d61b519146103055780631307430a14610324575b5f80fd5b348015610237575f80fd5b50610298610246366004612120565b601e6020525f9081526040902080546001820154600283015460038401546004850154600586015460069096015494956001600160a01b03909416949293919290919060ff8082169161010090041688565b604080519889526001600160a01b039097166020890152958701949094526060860192909252608085015260a0840152151560c0830152151560e0820152610100015b60405180910390f35b3480156102ef575f80fd5b506103036102fe36600461217c565b610855565b005b348015610310575f80fd5b5061030361031f366004612120565b610ae5565b34801561032f575f80fd5b5060185461033d9060ff1681565b60405160ff90911681526020016102db565b34801561035a575f80fd5b506103836103693660046121df565b60208080525f928352604080842090915290825290205481565b6040519081526020016102db565b34801561039c575f80fd5b506103036103ab366004612219565b610b97565b3480156103bb575f80fd5b506103de6103ca366004612241565b60176020525f908152604090205460ff1681565b60405190151581526020016102db565b3480156103f9575f80fd5b50610303610dec565b34801561040d575f80fd5b5061033d600581565b348015610421575f80fd5b506103de6104303660046121df565b601f60209081525f928352604080842090915290825290205460ff1681565b34801561045a575f80fd5b50610383601a5481565b34801561046f575f80fd5b5061038360015481565b348015610484575f80fd5b506104ae610493366004612120565b601c6020525f90815260409020805460019091015460ff1682565b604080519283529015156020830152016102db565b3480156104ce575f80fd5b5061038360195481565b3480156104e3575f80fd5b50610383604681565b3480156104f7575f80fd5b50610383603c81565b34801561050b575f80fd5b506103de61051a366004612241565b5f6020819052908152604090205460ff1681565b348015610539575f80fd5b5061038367058d15e17628000081565b348015610554575f80fd5b50610596610563366004612120565b601b6020525f90815260409020805460018201546002830154600384015460049094015460ff9384169492939192911685565b6040805160ff909616865260208601949094529284019190915260608301521515608082015260a0016102db565b3480156105cf575f80fd5b506105e36105de366004612120565b610f64565b604080516001600160a01b039095168552602085019390935291830152151560608201526080016102db565b34801561061a575f80fd5b506103de61062936600461225a565b610f9e565b348015610639575f80fd5b5061033d610648366004612241565b60166020525f908152604090205460ff1681565b348015610667575f80fd5b50610383670429d069189e000081565b348015610682575f80fd5b50610383600381565b348015610696575f80fd5b506106aa6106a536600461225a565b610ff5565b604080519283526020830191909152016102db565b3480156106ca575f80fd5b506103036106d9366004612273565b61104e565b610303611310565b3480156106f1575f80fd5b50610383600981565b348015610705575f80fd5b506103036107143660046122d6565b6113df565b348015610724575f80fd5b50610383662386f26fc1000081565b34801561073e575f80fd5b50610383601d5481565b348015610753575f80fd5b5061077b7f000000000000000000000000000000000000000000000000000000000000000081565b6040516001600160a01b0390911681526020016102db565b34801561079e575f80fd5b506103836702c68af0bb14000081565b3480156107b9575f80fd5b506103036107c8366004612241565b611697565b3480156107d8575f80fd5b50610383607881565b3480156107ec575f80fd5b506103036107fb366004612120565b6117ab565b34801561080b575f80fd5b5061030361081a366004612241565b6118b3565b34801561082a575f80fd5b506106aa610839366004612120565b5f908152601e6020526040902060038101546004909101549091565b335f9081526017602052604090205460ff16610884576040516394484cb360e01b815260040160405180910390fd5b601a5483106108a657604051634e1961b160e01b815260040160405180910390fd5b5f838152601b60205260409020600481015460ff16156108d957604051634dcfa42d60e01b815260040160405180910390fd5b607881600201546108ea9190612323565b42111561090a57604051637401943d60e01b815260040160405180910390fd5b335f90815260166020526040902054815460ff9182169116811461094157604051631eddb72360e01b815260040160405180910390fd5b662386f26fc1000060028260ff166005811061095f5761095f612336565b6004020160010154101561098657604051634307168b60e01b815260040160405180910390fd5b662386f26fc1000060028260ff16600581106109a4576109a4612336565b600402016001015f8282546109b9919061234a565b909155505060048201805460ff19166001179055601d80545f91826109dd8361235d565b90915550604080516101008082018352898252336020808401828152428587019081525f606087018181526080880182815260a0890183815260c08a0184815260e08b018581528d8652601e909852938b902099518a55945160018a0180546001600160a01b0319166001600160a01b039092169190911790559251600289015551600388015590516004870155905160058601555160069094018054915161ffff1990921694151561ff0019169490941790151590920291909117909155905191925082917fb7a91f9be8dd2f390d57130458eaeb3bba513360bb1de6eeb9c5dedfcd2043e791610ad5918a91908a908a90612375565b60405180910390a2505050505050565b601d548110610b075760405163635e873760e01b815260040160405180910390fd5b5f818152601e60205260409020600681015460ff1615610b3a57604051630dc1019760e01b815260040160405180910390fd5b5f610b44836119be565b82600501541015905060788260020154610b5e9190612323565b4211158015610b6b575080155b15610b89576040516388c081c760e01b815260040160405180910390fd5b610b9283611a1c565b505050565b336001600160a01b037f00000000000000000000000000000000000000000000000000000000000000001614610be057604051633823bd6160e11b815260040160405180910390fd5b81600560ff821610610c055760405163353cbf1760e01b815260040160405180910390fd5b60028360ff1660058110610c1b57610c1b612336565b600402016003015460ff1615610c445760405163058f935b60e51b815260040160405180910390fd5b6001600160a01b038216610c6b5760405163d92e233d60e01b815260040160405180910390fd5b6001600160a01b0382165f9081526017602052604090205460ff1615610ca457604051630ea075bf60e21b815260040160405180910390fd5b6040518060800160405280836001600160a01b031681526020015f81526020015f81526020016001151581525060028460ff1660058110610ce757610ce7612336565b82516004919091029190910180546001600160a01b039283166001600160a01b031990911617815560208084015160018084019190915560408086015160028501556060909501516003909301805493151560ff199485161790559286165f90815260168252848120805460ff8a8116918616919091179091556017909252938420805490921690921790556018805490911691610d84836123bb565b91906101000a81548160ff021916908360ff160217905550508260ff167fbd41480adfea8634fc35f31094e6104dba4854a017ca9baee56a018addf6ceae83604051610ddf91906001600160a01b0391909116815260200190565b60405180910390a2505050565b335f9081526017602052604090205460ff16610e1b576040516394484cb360e01b815260040160405180910390fd5b610e23611b51565b335f9081526016602052604081205460ff169060028260058110610e4957610e49612336565b60040201600101549050805f03610e7357604051630686827b60e51b815260040160405180910390fd5b5f60028360ff1660058110610e8a57610e8a612336565b6004020160010155604080513381526020810183905260ff8416917f3a2db7d2315c2162d4f47c295f514b5aacf84592e024bc529868af8d776567f7910160405180910390a26040515f90339083908381818185875af1925050503d805f8114610f0f576040519150601f19603f3d011682016040523d82523d5f602084013e610f14565b606091505b5050905080610f36576040516312171d8360e31b815260040160405180910390fd5b505050610f6260017f9b779b17422d0df92223018b32b4d1fa46e071723d6817e2486d003becc55f0055565b565b60028160058110610f73575f80fd5b600402018054600182015460028301546003909301546001600160a01b039092169350919060ff1684565b5f81600560ff821610610fc45760405163353cbf1760e01b815260040160405180910390fd5b67058d15e17628000060028460ff1660058110610fe357610fe3612336565b60040201600101541015915050919050565b5f8082600560ff82161061101c5760405163353cbf1760e01b815260040160405180910390fd5b5f60028560ff166005811061103357611033612336565b60040201905080600101548160020154935093505050915091565b84600560ff8216106110735760405163353cbf1760e01b815260040160405180910390fd5b601954841461109557604051633ab3447f60e11b815260040160405180910390fd5b60408051466020808301919091523060601b6bffffffffffffffffffffffff19168284015260f889901b6001600160f81b031916605483015260558201889052607580830188905283518084039091018152609590920190925280519101207f19457468657265756d205369676e6564204d6573736167653a0a3332000000005f908152601c829052603c812090505f61116686868080601f0160208091040260200160405190810160405280939291908181526020018383808284375f920191909152508693925050611b7f9050565b6001600160a01b0381165f9081526020819052604090205490915060ff166111a157604051634284a17d60e01b815260040160405180910390fd5b604688116111c257604051638f9872e360e01b815260040160405180910390fd5b5f6111cc89611ba9565b90508060028b60ff16600581106111e5576111e5612336565b6004020160010154101561120c5760405163070f6eed60e11b815260040160405180910390fd5b60198054905f61121b8361235d565b9091555050601a80545f91826112308361235d565b909155506040805160a08101825260ff808f16825260208083018f815242848601908152606085018981525f60808701818152898252601b90955287902095518654951660ff19958616178655915160018601555160028501555160038401555160049092018054921515929091169190911790555190915081907f014d941e9f383d2e10aba8f5735dff00dc65585d6998e4a1366b8afb2db31554906112f2908e908e90879060ff9390931683526020830191909152604082015260600190565b60405180910390a261130381611be9565b5050505050505050505050565b335f9081526017602052604090205460ff1661133f576040516394484cb360e01b815260040160405180910390fd5b345f0361135f576040516356316e8760e01b815260040160405180910390fd5b335f9081526016602052604090205460ff16346002826005811061138557611385612336565b600402016001015f82825461139a9190612323565b90915550506040805133815234602082015260ff8316917fdf579713dc5e1365236e32a311de62e14a718d48397680deab3be0f9f9f0d693910160405180910390a250565b335f9081526017602052604090205460ff161580156114275750336001600160a01b037f00000000000000000000000000000000000000000000000000000000000000001614155b1561144557604051637fb16f1b60e01b815260040160405180910390fd5b601d5483106114675760405163635e873760e01b815260040160405180910390fd5b5f61147282806123d9565b90508115806114815750600981115b1561149f57604051633a62e23760e21b815260040160405180910390fd5b5f848152601e60205260409020600681015460ff16156114d257604051630dc1019760e01b815260040160405180910390fd5b607881600201546114e39190612323565b4211156115035760405163335b65a560e11b815260040160405180910390fd5b5f858152601f6020908152604080832033845290915290205460ff161561153d57604051637c9a1cf960e01b815260040160405180910390fd5b60018101546001600160a01b0316330361156a576040516303a7953360e31b815260040160405180910390fd5b5f8581526020808052604080832033845290915290205460099061158f908490612323565b11156115ae576040516343fb945360e01b815260040160405180910390fd5b5f858152601f6020908152604080832033808552908352818420805460ff19166001179055888452828052818420908452909152812080548492906115f4908490612323565b9091555050600581018054905f61160a8361235d565b919050555083156116335782816003015f8282546116289190612323565b9091555061164c9050565b82816004015f8282546116469190612323565b90915550505b60408051338152851515602082015290810184905285907fcbdf6214089cba887ecbf35a0b6a734589959c9763342c756bb2a80ca2bc9f6e9060600160405180910390a25050505050565b336001600160a01b037f000000000000000000000000000000000000000000000000000000000000000016146116e057604051633823bd6160e11b815260040160405180910390fd5b6001600160a01b0381166117075760405163d92e233d60e01b815260040160405180910390fd5b6001600160a01b0381165f9081526020819052604090205460ff161561174057604051633295224f60e11b815260040160405180910390fd5b6001600160a01b0381165f908152602081905260408120805460ff191660019081179091558054916117718361235d565b90915550506040516001600160a01b038216907e47706786c922d17b39285dc59d696bafea72c0b003d3841ae1202076f4c2e4905f90a250565b601a5481106117cd57604051634e1961b160e01b815260040160405180910390fd5b5f818152601b60205260409020600481015460ff161561180057604051634dcfa42d60e01b815260040160405180910390fd5b607881600201546118119190612323565b421161183057604051630639559160e01b815260040160405180910390fd5b5f828152601c60205260409020600181015460ff161561186357604051630c6a96d960e01b815260040160405180910390fd5b6001818101805460ff19169091179055815481546118849160ff1690611d60565b60405183907f85de091be18b1506795711e7cfa4b799aa13315833d24c8f92af184dad042098905f90a2505050565b336001600160a01b037f000000000000000000000000000000000000000000000000000000000000000016146118fc57604051633823bd6160e11b815260040160405180910390fd5b6001600160a01b0381165f9081526020819052604090205460ff1661193457604051630b0a0e0d60e21b815260040160405180910390fd5b60018054116119565760405163fcb5936360e01b815260040160405180910390fd5b6001600160a01b0381165f908152602081905260408120805460ff191690556001805491611983836123f0565b90915550506040516001600160a01b038216907f9c8e7d83025bef8a04c664b2f753f64b8814bdb7e27291d7e50935f18cc3c712905f90a250565b5f818152601e6020526040812060185482906119de9060ff166001612405565b60018301546001600160a01b03165f9081526017602052604090205460ff91821692501615611a1557611a1260018261234a565b90505b9392505050565b5f818152601e60205260409020600681015460ff1615611a4f57604051630dc1019760e01b815260040160405180910390fd5b5f81600401548260030154611a649190612323565b90506003811015611a885760405163aa26a69360e01b815260040160405180910390fd5b60068201805460ff19166001179055600482015460038301541115611ac65760068201805461ff001916610100179055611ac183611e12565b611b10565b81545f908152601b60209081526040808320601c909252909120600181015460ff16611b0d576001818101805460ff1916909117905581548154611b0d9160ff1690611d60565b50505b600682015460405161010090910460ff161515815283907f948f4a9cd986f1118c3fbd459f7a22b23c0693e1ca3ef06a6a8be5aa7d39cc0390602001610ddf565b611b59611f0c565b60027f9b779b17422d0df92223018b32b4d1fa46e071723d6817e2486d003becc55f0055565b5f805f80611b8d8686611f4e565b925092509250611b9d8282611f97565b50909150505b92915050565b5f6064821115611bc2575067058d15e176280000919050565b6055821115611bda5750670429d069189e0000919050565b506702c68af0bb140000919050565b5f818152601b602052604090208054600382015460ff9091169060028260058110611c1657611c16612336565b600402016001015f828254611c2b919061234a565b90915550506018545f90611c449060019060ff1661241e565b60ff168360030154611c569190612437565b90505f5b600560ff82161015611cd8578260ff168160ff1614158015611c99575060028160ff1660058110611c8d57611c8d612336565b600402016003015460ff165b15611cd0578160028260ff1660058110611cb557611cb5612336565b600402016002015f828254611cca9190612323565b90915550505b600101611c5a565b506040805180820182528281525f6020808301828152888352601c8252918490209251835590516001909201805460ff1916921515929092179091556003850154825160ff861681529182015290810182905284907fcbfdcc00384817b33344a44e3012321f2038b7ab7106ef4e8514a6b7e2f2fb549060600160405180910390a250505050565b5f5b600560ff82161015610b92578260ff168160ff1614158015611da1575060028160ff1660058110611d9557611d95612336565b600402016003015460ff165b15611e0a578160028260ff1660058110611dbd57611dbd612336565b600402016002015f828254611dd2919061234a565b90915550829050600260ff831660058110611def57611def612336565b600402016001015f828254611e049190612323565b90915550505b600101611d62565b5f818152601e6020908152604080832080548452601b8352818420601c90935290832082549193909160ff16905b600560ff82161015611ebf578160ff168160ff1614158015611e7f575060028160ff1660058110611e7357611e73612336565b600402016003015460ff165b15611eb7578254600260ff831660058110611e9c57611e9c612336565b600402016002015f828254611eb1919061234a565b90915550505b600101611e40565b506001828101805460ff191690911790556003830154600260ff831660058110611eeb57611eeb612336565b600402016001015f828254611f009190612323565b90915550505050505050565b7f9b779b17422d0df92223018b32b4d1fa46e071723d6817e2486d003becc55f0054600203610f6257604051633ee5aeb560e01b815260040160405180910390fd5b5f805f8351604103611f85576020840151604085015160608601515f1a611f7788828585612058565b955095509550505050611f90565b505081515f91506002905b9250925092565b5f826003811115611faa57611faa612456565b03611fb3575050565b6001826003811115611fc757611fc7612456565b03611fe55760405163f645eedf60e01b815260040160405180910390fd5b6002826003811115611ff957611ff9612456565b0361201f5760405163fce698f760e01b8152600481018290526024015b60405180910390fd5b600382600381111561203357612033612456565b03612054576040516335e2f38360e21b815260048101829052602401612016565b5050565b5f80807f7fffffffffffffffffffffffffffffff5d576e7357a4501ddfe92f46681b20a084111561209157505f91506003905082612116565b604080515f808252602082018084528a905260ff891692820192909252606081018790526080810186905260019060a0016020604051602081039080840390855afa1580156120e2573d5f803e3d5ffd5b5050604051601f1901519150506001600160a01b03811661210d57505f925060019150829050612116565b92505f91508190505b9450945094915050565b5f60208284031215612130575f80fd5b5035919050565b5f8083601f840112612147575f80fd5b50813567ffffffffffffffff81111561215e575f80fd5b602083019150836020828501011115612175575f80fd5b9250929050565b5f805f6040848603121561218e575f80fd5b83359250602084013567ffffffffffffffff8111156121ab575f80fd5b6121b786828701612137565b9497909650939450505050565b80356001600160a01b03811681146121da575f80fd5b919050565b5f80604083850312156121f0575f80fd5b82359150612200602084016121c4565b90509250929050565b803560ff811681146121da575f80fd5b5f806040838503121561222a575f80fd5b61223383612209565b9150612200602084016121c4565b5f60208284031215612251575f80fd5b611a15826121c4565b5f6020828403121561226a575f80fd5b611a1582612209565b5f805f805f60808688031215612287575f80fd5b61229086612209565b94506020860135935060408601359250606086013567ffffffffffffffff8111156122b9575f80fd5b6122c588828901612137565b969995985093965092949392505050565b5f805f606084860312156122e8575f80fd5b83359250602084013580151581146122fe575f80fd5b929592945050506040919091013590565b634e487b7160e01b5f52601160045260245ffd5b80820180821115611ba357611ba361230f565b634e487b7160e01b5f52603260045260245ffd5b81810381811115611ba357611ba361230f565b5f6001820161236e5761236e61230f565b5060010190565b8481526001600160a01b03841660208201526060604082018190528101829052818360808301375f818301608090810191909152601f909201601f191601019392505050565b5f60ff821660ff81036123d0576123d061230f565b60010192915050565b8082028115828204841417611ba357611ba361230f565b5f816123fe576123fe61230f565b505f190190565b60ff8181168382160190811115611ba357611ba361230f565b60ff8281168282160390811115611ba357611ba361230f565b5f8261245157634e487b7160e01b5f52601260045260245ffd5b500490565b634e487b7160e01b5f52602160045260245ffdfea2646970667358221220168ae94c5e24a74ca93c4c9c9baa0e1a3d1edb124c86aee382a9bfff80b60afa64736f6c63430008180033","linkReferences":{}},"methodIdentifiers":{"APPEAL_FEE()":"d7eb6929","APPEAL_WINDOW()":"f269a21e","MAX_ROOMS()":"427eaabb","MINIMUM_DEPOSIT()":"f19451d8","NOISE_THRESHOLD_DB()":"8f3d4e9c","PENALTY_HIGH()":"aa320e6a","PENALTY_LOW()":"de190123","PENALTY_MED()":"c293437c","VOICE_CREDITS()":"d3ee3b94","VOTE_PASS_THRESHOLD()":"9b604b0b","VOTE_QUORUM()":"c7761fab","addOracle(address)":"df5dd1a5","addressToRoom(address)":"c101656a","createAppeal(uint256,string)":"0a6387fd","creditsUsed(uint256,address)":"22be21bd","deposit()":"d0e30db0","executeProposal(uint256)":"0d61b519","getDeposit(uint8)":"c7e38cb4","getVotes(uint256)":"ff981099","hasVoted(uint256,address)":"43859632","isDepositSufficient(uint8)":"bff07463","isOracle(address)":"a97e5c93","isTenant(address)":"37f2e48a","landlord()":"dc1997ea","oracleCount()":"613d8fcc","proposalCount()":"da35c664","proposals(uint256)":"013cf08b","registerTenant(uint8,address)":"267dcb80","releaseRewards(uint256)":"f8703bb8","removeOracle(address)":"fdc85fc4","reportNoise(uint8,uint256,uint256,bytes)":"cb3655ca","reportNonce()":"85bc0c59","tenantCount()":"1307430a","tenants(uint256)":"bd2ba85d","violationCount()":"52388941","violationLocks(uint256)":"6de5b758","violations(uint256)":"b995bb95","vote(uint256,bool,uint256)":"d46a5d7e","withdraw()":"3ccfd60b"},"id":29}