{"abi":[{"type":"constructor","inputs":[{"name":"initialOracle","type":"address","internalType":"address"}],"stateMutability":"nonpayable"},{"type":"function","name":"APPEAL_FEE","inputs":[],"outputs":[{"name":"","type":"uint256","internalType":"uint256"}],"stateMutability":"view"},{"type":"function","name":"APPEAL_WINDOW","inputs":[],"outputs":[{"name":"","type":"uint256","internalType":"uint256"}],"stateMutability":"view"},{"type":"function","name":"MAX_ROOMS","inputs":[],"outputs":[{"name":"","type":"uint8","internalType":"uint8"}],"stateMutability":"view"},{"type":"function","name":"MINIMUM_DEPOSIT","inputs":[],"outputs":[{"name":"","type":"uint256","internalType":"uint256"}],"stateMutability":"view"},{"type":"function","name":"NOISE_THRESHOLD_DB","inputs":[],"outputs":[{"name":"","type":"uint256","internalType":"uint256"}],"stateMutability":"view"},{"type":"function","name":"PENALTY_HIGH","inputs":[],"outputs":[{"name":"","type":"uint256","internalType":"uint256"}],"stateMutability":"view"},{"type":"function","name":"PENALTY_LOW","inputs":[],"outputs":[{"name":"","type":"uint256","internalType":"uint256"}],"stateMutability":"view"},{"type":"function","name":"PENALTY_MED","inputs":[],"outputs":[{"name":"","type":"uint256","internalType":"uint256"}],"stateMutability":"view"},{"type":"function","name":"VOTE_PASS_THRESHOLD","inputs":[],"outputs":[{"name":"","type":"uint256","internalType":"uint256"}],"stateMutability":"view"},{"type":"function","name":"VOTE_QUORUM","inputs":[],"outputs":[{"name":"","type":"uint256","internalType":"uint256"}],"stateMutability":"view"},{"type":"function","name":"addOracle","inputs":[{"name":"newOracle","type":"address","internalType":"address"}],"outputs":[],"stateMutability":"nonpayable"},{"type":"function","name":"addressToRoom","inputs":[{"name":"","type":"address","internalType":"address"}],"outputs":[{"name":"","type":"uint8","internalType":"uint8"}],"stateMutability":"view"},{"type":"function","name":"createAppeal","inputs":[{"name":"violationId","type":"uint256","internalType":"uint256"},{"name":"reason","type":"string","internalType":"string"}],"outputs":[],"stateMutability":"nonpayable"},{"type":"function","name":"deposit","inputs":[],"outputs":[],"stateMutability":"payable"},{"type":"function","name":"executeProposal","inputs":[{"name":"proposalId","type":"uint256","internalType":"uint256"}],"outputs":[],"stateMutability":"nonpayable"},{"type":"function","name":"getDeposit","inputs":[{"name":"roomIndex","type":"uint8","internalType":"uint8"}],"outputs":[{"name":"free","type":"uint256","internalType":"uint256"},{"name":"locked","type":"uint256","internalType":"uint256"}],"stateMutability":"view"},{"type":"function","name":"getVotes","inputs":[{"name":"proposalId","type":"uint256","internalType":"uint256"}],"outputs":[{"name":"yes","type":"uint256","internalType":"uint256"},{"name":"no","type":"uint256","internalType":"uint256"}],"stateMutability":"view"},{"type":"function","name":"hasVoted","inputs":[{"name":"","type":"uint256","internalType":"uint256"},{"name":"","type":"address","internalType":"address"}],"outputs":[{"name":"","type":"bool","internalType":"bool"}],"stateMutability":"view"},{"type":"function","name":"isDepositSufficient","inputs":[{"name":"roomIndex","type":"uint8","internalType":"uint8"}],"outputs":[{"name":"","type":"bool","internalType":"bool"}],"stateMutability":"view"},{"type":"function","name":"isOracle","inputs":[{"name":"","type":"address","internalType":"address"}],"outputs":[{"name":"","type":"bool","internalType":"bool"}],"stateMutability":"view"},{"type":"function","name":"isTenant","inputs":[{"name":"","type":"address","internalType":"address"}],"outputs":[{"name":"","type":"bool","internalType":"bool"}],"stateMutability":"view"},{"type":"function","name":"landlord","inputs":[],"outputs":[{"name":"","type":"address","internalType":"address"}],"stateMutability":"view"},{"type":"function","name":"oracleCount","inputs":[],"outputs":[{"name":"","type":"uint256","internalType":"uint256"}],"stateMutability":"view"},{"type":"function","name":"proposalCount","inputs":[],"outputs":[{"name":"","type":"uint256","internalType":"uint256"}],"stateMutability":"view"},{"type":"function","name":"proposals","inputs":[{"name":"","type":"uint256","internalType":"uint256"}],"outputs":[{"name":"violationId","type":"uint256","internalType":"uint256"},{"name":"appellant","type":"address","internalType":"address"},{"name":"createdAt","type":"uint256","internalType":"uint256"},{"name":"yesVotes","type":"uint256","internalType":"uint256"},{"name":"noVotes","type":"uint256","internalType":"uint256"},{"name":"executed","type":"bool","internalType":"bool"},{"name":"passed","type":"bool","internalType":"bool"}],"stateMutability":"view"},{"type":"function","name":"registerTenant","inputs":[{"name":"roomIndex","type":"uint8","internalType":"uint8"},{"name":"tenantAddr","type":"address","internalType":"address"}],"outputs":[],"stateMutability":"nonpayable"},{"type":"function","name":"releaseRewards","inputs":[{"name":"violationId","type":"uint256","internalType":"uint256"}],"outputs":[],"stateMutability":"nonpayable"},{"type":"function","name":"removeOracle","inputs":[{"name":"target","type":"address","internalType":"address"}],"outputs":[],"stateMutability":"nonpayable"},{"type":"function","name":"reportNoise","inputs":[{"name":"roomIndex","type":"uint8","internalType":"uint8"},{"name":"decibels","type":"uint256","internalType":"uint256"},{"name":"nonce","type":"uint256","internalType":"uint256"},{"name":"signature","type":"bytes","internalType":"bytes"}],"outputs":[],"stateMutability":"nonpayable"},{"type":"function","name":"reportNonce","inputs":[],"outputs":[{"name":"","type":"uint256","internalType":"uint256"}],"stateMutability":"view"},{"type":"function","name":"tenantCount","inputs":[],"outputs":[{"name":"","type":"uint8","internalType":"uint8"}],"stateMutability":"view"},{"type":"function","name":"tenants","inputs":[{"name":"","type":"uint256","internalType":"uint256"}],"outputs":[{"name":"addr","type":"address","internalType":"address"},{"name":"deposit","type":"uint256","internalType":"uint256"},{"name":"lockedDeposit","type":"uint256","internalType":"uint256"},{"name":"registered","type":"bool","internalType":"bool"}],"stateMutability":"view"},{"type":"function","name":"violationCount","inputs":[],"outputs":[{"name":"","type":"uint256","internalType":"uint256"}],"stateMutability":"view"},{"type":"function","name":"violationLocks","inputs":[{"name":"","type":"uint256","internalType":"uint256"}],"outputs":[{"name":"rewardPerRecipient","type":"uint256","internalType":"uint256"},{"name":"released","type":"bool","internalType":"bool"}],"stateMutability":"view"},{"type":"function","name":"violations","inputs":[{"name":"","type":"uint256","internalType":"uint256"}],"outputs":[{"name":"roomIndex","type":"uint8","internalType":"uint8"},{"name":"decibels","type":"uint256","internalType":"uint256"},{"name":"reportedAt","type":"uint256","internalType":"uint256"},{"name":"penaltyPaid","type":"uint256","internalType":"uint256"},{"name":"appealed","type":"bool","internalType":"bool"}],"stateMutability":"view"},{"type":"function","name":"vote","inputs":[{"name":"proposalId","type":"uint256","internalType":"uint256"},{"name":"approve","type":"bool","internalType":"bool"}],"outputs":[],"stateMutability":"nonpayable"},{"type":"function","name":"withdraw","inputs":[],"outputs":[],"stateMutability":"nonpayable"},{"type":"event","name":"AppealCreated","inputs":[{"name":"proposalId","type":"uint256","indexed":true,"internalType":"uint256"},{"name":"violationId","type":"uint256","indexed":false,"internalType":"uint256"},{"name":"appellant","type":"address","indexed":false,"internalType":"address"},{"name":"reason","type":"string","indexed":false,"internalType":"string"}],"anonymous":false},{"type":"event","name":"Deposited","inputs":[{"name":"roomIndex","type":"uint8","indexed":true,"internalType":"uint8"},{"name":"tenant","type":"address","indexed":false,"internalType":"address"},{"name":"amount","type":"uint256","indexed":false,"internalType":"uint256"}],"anonymous":false},{"type":"event","name":"NoiseReported","inputs":[{"name":"violationId","type":"uint256","indexed":true,"internalType":"uint256"},{"name":"roomIndex","type":"uint8","indexed":false,"internalType":"uint8"},{"name":"decibels","type":"uint256","indexed":false,"internalType":"uint256"},{"name":"penalty","type":"uint256","indexed":false,"internalType":"uint256"}],"anonymous":false},{"type":"event","name":"OracleAdded","inputs":[{"name":"oracle","type":"address","indexed":true,"internalType":"address"}],"anonymous":false},{"type":"event","name":"OracleRemoved","inputs":[{"name":"oracle","type":"address","indexed":true,"internalType":"address"}],"anonymous":false},{"type":"event","name":"PenaltyApplied","inputs":[{"name":"violationId","type":"uint256","indexed":true,"internalType":"uint256"},{"name":"offenderRoom","type":"uint8","indexed":false,"internalType":"uint8"},{"name":"penaltyAmount","type":"uint256","indexed":false,"internalType":"uint256"},{"name":"rewardPerTenant","type":"uint256","indexed":false,"internalType":"uint256"}],"anonymous":false},{"type":"event","name":"ProposalExecuted","inputs":[{"name":"proposalId","type":"uint256","indexed":true,"internalType":"uint256"},{"name":"passed","type":"bool","indexed":false,"internalType":"bool"}],"anonymous":false},{"type":"event","name":"RewardsReleased","inputs":[{"name":"violationId","type":"uint256","indexed":true,"internalType":"uint256"}],"anonymous":false},{"type":"event","name":"TenantRegistered","inputs":[{"name":"roomIndex","type":"uint8","indexed":true,"internalType":"uint8"},{"name":"tenant","type":"address","indexed":false,"internalType":"address"}],"anonymous":false},{"type":"event","name":"VoteCast","inputs":[{"name":"proposalId","type":"uint256","indexed":true,"internalType":"uint256"},{"name":"voter","type":"address","indexed":false,"internalType":"address"},{"name":"approve","type":"bool","indexed":false,"internalType":"bool"}],"anonymous":false},{"type":"event","name":"Withdrawn","inputs":[{"name":"roomIndex","type":"uint8","indexed":true,"internalType":"uint8"},{"name":"tenant","type":"address","indexed":false,"internalType":"address"},{"name":"amount","type":"uint256","indexed":false,"internalType":"uint256"}],"anonymous":false},{"type":"error","name":"AlreadyAppealed","inputs":[]},{"type":"error","name":"AlreadyExecuted","inputs":[]},{"type":"error","name":"AlreadyRegistered","inputs":[]},{"type":"error","name":"AlreadyVoted","inputs":[]},{"type":"error","name":"AppealWindowClosed","inputs":[]},{"type":"error","name":"AppealWindowStillOpen","inputs":[]},{"type":"error","name":"AppellantCannotVote","inputs":[]},{"type":"error","name":"BelowNoiseThreshold","inputs":[]},{"type":"error","name":"ECDSAInvalidSignature","inputs":[]},{"type":"error","name":"ECDSAInvalidSignatureLength","inputs":[{"name":"length","type":"uint256","internalType":"uint256"}]},{"type":"error","name":"ECDSAInvalidSignatureS","inputs":[{"name":"s","type":"bytes32","internalType":"bytes32"}]},{"type":"error","name":"InsufficientDeposit","inputs":[]},{"type":"error","name":"InsufficientDepositForFee","inputs":[]},{"type":"error","name":"InvalidNonce","inputs":[]},{"type":"error","name":"InvalidRoom","inputs":[]},{"type":"error","name":"MinOraclesRequired","inputs":[]},{"type":"error","name":"NotAnOracle","inputs":[]},{"type":"error","name":"NotEligibleToVote","inputs":[]},{"type":"error","name":"NotLandlord","inputs":[]},{"type":"error","name":"NotTenant","inputs":[]},{"type":"error","name":"NotThePenalizedTenant","inputs":[]},{"type":"error","name":"NothingToWithdraw","inputs":[]},{"type":"error","name":"OracleAlreadyAdded","inputs":[]},{"type":"error","name":"OracleNotFound","inputs":[]},{"type":"error","name":"ProposalNotFound","inputs":[]},{"type":"error","name":"QuorumNotReached","inputs":[]},{"type":"error","name":"ReentrancyGuardReentrantCall","inputs":[]},{"type":"error","name":"RewardsAlreadyReleased","inputs":[]},{"type":"error","name":"RoomOccupied","inputs":[]},{"type":"error","name":"TransferFailed","inputs":[]},{"type":"error","name":"ViolationNotFound","inputs":[]},{"type":"error","name":"VotingClosed","inputs":[]},{"type":"error","name":"VotingStillOpen","inputs":[]},{"type":"error","name":"ZeroAddress","inputs":[]},{"type":"error","name":"ZeroDeposit","inputs":[]}],"bytecode":{"object":"0x60a060405234801562000010575f80fd5b50604051620023d7380380620023d78339810160408190526200003391620000d6565b60017f9b779b17422d0df92223018b32b4d1fa46e071723d6817e2486d003becc55f00556001600160a01b0381166200007f5760405163d92e233d60e01b815260040160405180910390fd5b336080526001600160a01b0381165f81815260208190526040808220805460ff191660019081179091558055517e47706786c922d17b39285dc59d696bafea72c0b003d3841ae1202076f4c2e49190a25062000105565b5f60208284031215620000e7575f80fd5b81516001600160a01b0381168114620000fe575f80fd5b9392505050565b60805161229d6200013a5f395f81816106ed01528181610c20015281816110e4015281816116440152611862015261229d5ff3fe608060405260043610610212575f3560e01c8063bd2ba85d1161011e578063d7eb6929116100a8578063f19451d81161006d578063f19451d8146104d6578063f269a21e14610761578063f8703bb814610777578063fdc85fc414610796578063ff981099146107b5575f80fd5b8063d7eb6929146106ad578063da35c664146106c7578063dc1997ea146106dc578063de19012314610727578063df5dd1a514610742575f80fd5b8063c7761fab116100ee578063c7761fab1461061f578063c7e38cb414610633578063c9d27afe14610667578063cb3655ca14610686578063d0e30db0146106a5575f80fd5b8063bd2ba85d1461056c578063bff07463146105b7578063c101656a146105d6578063c293437c14610604575f80fd5b8063523889411161019f5780638f3d4e9c1161016f5780638f3d4e9c146104805780639b604b0b14610494578063a97e5c93146104a8578063aa320e6a146104d6578063b995bb95146104f1575f80fd5b806352388941146103e9578063613d8fcc1461040c5780636de5b7581461042157806385bc0c591461046b575f80fd5b8063267dcb80116101e5578063267dcb801461032b57806337f2e48a1461034a5780633ccfd60b14610388578063427eaabb1461039c57806343859632146103b0575f80fd5b8063013cf08b146102165780630a6387fd146102c05780630d61b519146102e15780631307430a14610300575b5f80fd5b348015610221575f80fd5b5061027a610230366004611f36565b601e6020525f908152604090208054600182015460028301546003840154600485015460059095015493946001600160a01b03909316939192909160ff8082169161010090041687565b604080519788526001600160a01b0390961660208801529486019390935260608501919091526080840152151560a0830152151560c082015260e0015b60405180910390f35b3480156102cb575f80fd5b506102df6102da366004611f92565b6107eb565b005b3480156102ec575f80fd5b506102df6102fb366004611f36565b610a6f565b34801561030b575f80fd5b506018546103199060ff1681565b60405160ff90911681526020016102b7565b348015610336575f80fd5b506102df610345366004612005565b610c15565b348015610355575f80fd5b50610378610364366004612036565b60176020525f908152604090205460ff1681565b60405190151581526020016102b7565b348015610393575f80fd5b506102df610e5d565b3480156103a7575f80fd5b50610319600581565b3480156103bb575f80fd5b506103786103ca366004612056565b601f60209081525f928352604080842090915290825290205460ff1681565b3480156103f4575f80fd5b506103fe601a5481565b6040519081526020016102b7565b348015610417575f80fd5b506103fe60015481565b34801561042c575f80fd5b5061045661043b366004611f36565b601c6020525f90815260409020805460019091015460ff1682565b604080519283529015156020830152016102b7565b348015610476575f80fd5b506103fe60195481565b34801561048b575f80fd5b506103fe604681565b34801561049f575f80fd5b506103fe603c81565b3480156104b3575f80fd5b506103786104c2366004612036565b5f6020819052908152604090205460ff1681565b3480156104e1575f80fd5b506103fe67058d15e17628000081565b3480156104fc575f80fd5b5061053e61050b366004611f36565b601b6020525f90815260409020805460018201546002830154600384015460049094015460ff9384169492939192911685565b6040805160ff909616865260208601949094529284019190915260608301521515608082015260a0016102b7565b348015610577575f80fd5b5061058b610586366004611f36565b610fd5565b604080516001600160a01b039095168552602085019390935291830152151560608201526080016102b7565b3480156105c2575f80fd5b506103786105d1366004612077565b61100f565b3480156105e1575f80fd5b506103196105f0366004612036565b60166020525f908152604090205460ff1681565b34801561060f575f80fd5b506103fe670429d069189e000081565b34801561062a575f80fd5b506103fe600381565b34801561063e575f80fd5b5061065261064d366004612077565b611066565b604080519283526020830191909152016102b7565b348015610672575f80fd5b506102df610681366004612090565b6110bf565b348015610691575f80fd5b506102df6106a03660046120c2565b6112a8565b6102df61156a565b3480156106b8575f80fd5b506103fe662386f26fc1000081565b3480156106d2575f80fd5b506103fe601d5481565b3480156106e7575f80fd5b5061070f7f000000000000000000000000000000000000000000000000000000000000000081565b6040516001600160a01b0390911681526020016102b7565b348015610732575f80fd5b506103fe6702c68af0bb14000081565b34801561074d575f80fd5b506102df61075c366004612036565b611639565b34801561076c575f80fd5b506103fe6201518081565b348015610782575f80fd5b506102df610791366004611f36565b61174d565b3480156107a1575f80fd5b506102df6107b0366004612036565b611857565b3480156107c0575f80fd5b506106526107cf366004611f36565b5f908152601e6020526040902060038101546004909101549091565b335f9081526017602052604090205460ff1661081a576040516394484cb360e01b815260040160405180910390fd5b601a54831061083c57604051634e1961b160e01b815260040160405180910390fd5b5f838152601b60205260409020600481015460ff161561086f57604051634dcfa42d60e01b815260040160405180910390fd5b6201518081600201546108829190612139565b4211156108a257604051637401943d60e01b815260040160405180910390fd5b335f90815260166020526040902054815460ff918216911681146108d957604051631eddb72360e01b815260040160405180910390fd5b662386f26fc1000060028260ff16600581106108f7576108f761214c565b6004020160010154101561091e57604051634307168b60e01b815260040160405180910390fd5b662386f26fc1000060028260ff166005811061093c5761093c61214c565b600402016001015f8282546109519190612160565b909155505060048201805460ff19166001179055601d80545f918261097583612173565b909155506040805160e081018252888152336020808301828152428486019081525f606086018181526080870182815260a0880183815260c089018481528b8552601e909752928990209751885593516001880180546001600160a01b0319166001600160a01b039092169190911790559151600287015590516003860155905160048501555160059093018054915161ffff1990921693151561ff001916939093176101009115159190910217909155905191925082917fb7a91f9be8dd2f390d57130458eaeb3bba513360bb1de6eeb9c5dedfcd2043e791610a5f918a91908a908a9061218b565b60405180910390a2505050505050565b601d548110610a915760405163635e873760e01b815260040160405180910390fd5b5f818152601e60205260409020600581015460ff1615610ac457604051630dc1019760e01b815260040160405180910390fd5b620151808160020154610ad79190612139565b4211610af6576040516388c081c760e01b815260040160405180910390fd5b5f81600401548260030154610b0b9190612139565b90506003811015610b2f5760405163aa26a69360e01b815260040160405180910390fd5b60058201805460ff191660011790556003820154603c908290610b539060646121d1565b610b5d91906121e8565b10610b815760058201805461ff001916610100179055610b7c83611962565b610bcb565b81545f908152601b60209081526040808320601c909252909120600181015460ff16610bc8576001818101805460ff1916909117905581548154610bc89160ff1690611a5c565b50505b600582015460405161010090910460ff161515815283907f948f4a9cd986f1118c3fbd459f7a22b23c0693e1ca3ef06a6a8be5aa7d39cc03906020015b60405180910390a2505050565b336001600160a01b037f00000000000000000000000000000000000000000000000000000000000000001614610c5e57604051633823bd6160e11b815260040160405180910390fd5b81600560ff821610610c835760405163353cbf1760e01b815260040160405180910390fd5b60028360ff1660058110610c9957610c9961214c565b600402016003015460ff1615610cc25760405163058f935b60e51b815260040160405180910390fd5b6001600160a01b038216610ce95760405163d92e233d60e01b815260040160405180910390fd5b6001600160a01b0382165f9081526017602052604090205460ff1615610d2257604051630ea075bf60e21b815260040160405180910390fd5b6040518060800160405280836001600160a01b031681526020015f81526020015f81526020016001151581525060028460ff1660058110610d6557610d6561214c565b82516004919091029190910180546001600160a01b039283166001600160a01b031990911617815560208084015160018084019190915560408086015160028501556060909501516003909301805493151560ff199485161790559286165f90815260168252848120805460ff8a8116918616919091179091556017909252938420805490921690921790556018805490911691610e0283612207565b91906101000a81548160ff021916908360ff160217905550508260ff167fbd41480adfea8634fc35f31094e6104dba4854a017ca9baee56a018addf6ceae83604051610c0891906001600160a01b0391909116815260200190565b335f9081526017602052604090205460ff16610e8c576040516394484cb360e01b815260040160405180910390fd5b610e94611b13565b335f9081526016602052604081205460ff169060028260058110610eba57610eba61214c565b60040201600101549050805f03610ee457604051630686827b60e51b815260040160405180910390fd5b5f60028360ff1660058110610efb57610efb61214c565b6004020160010155604080513381526020810183905260ff8416917f3a2db7d2315c2162d4f47c295f514b5aacf84592e024bc529868af8d776567f7910160405180910390a26040515f90339083908381818185875af1925050503d805f8114610f80576040519150601f19603f3d011682016040523d82523d5f602084013e610f85565b606091505b5050905080610fa7576040516312171d8360e31b815260040160405180910390fd5b505050610fd360017f9b779b17422d0df92223018b32b4d1fa46e071723d6817e2486d003becc55f0055565b565b60028160058110610fe4575f80fd5b600402018054600182015460028301546003909301546001600160a01b039092169350919060ff1684565b5f81600560ff8216106110355760405163353cbf1760e01b815260040160405180910390fd5b67058d15e17628000060028460ff16600581106110545761105461214c565b60040201600101541015915050919050565b5f8082600560ff82161061108d5760405163353cbf1760e01b815260040160405180910390fd5b5f60028560ff16600581106110a4576110a461214c565b60040201905080600101548160020154935093505050915091565b335f9081526017602052604090205460ff161580156111075750336001600160a01b037f00000000000000000000000000000000000000000000000000000000000000001614155b1561112557604051637fb16f1b60e01b815260040160405180910390fd5b601d5482106111475760405163635e873760e01b815260040160405180910390fd5b5f828152601e60205260409020600581015460ff161561117a57604051630dc1019760e01b815260040160405180910390fd5b62015180816002015461118d9190612139565b4211156111ad5760405163335b65a560e11b815260040160405180910390fd5b5f838152601f6020908152604080832033845290915290205460ff16156111e757604051637c9a1cf960e01b815260040160405180910390fd5b60018101546001600160a01b03163303611214576040516303a7953360e31b815260040160405180910390fd5b5f838152601f602090815260408083203384529091529020805460ff19166001179055811561125857600381018054905f61124e83612173565b919050555061126f565b600481018054905f61126983612173565b91905055505b60408051338152831515602082015284917fe71fcdac32df1877c1700e7bda2a03157e20993363a28fc35ac495cefc76e4d49101610c08565b84600560ff8216106112cd5760405163353cbf1760e01b815260040160405180910390fd5b60195484146112ef57604051633ab3447f60e11b815260040160405180910390fd5b60408051466020808301919091523060601b6bffffffffffffffffffffffff19168284015260f889901b6001600160f81b031916605483015260558201889052607580830188905283518084039091018152609590920190925280519101207f19457468657265756d205369676e6564204d6573736167653a0a3332000000005f908152601c829052603c812090505f6113c086868080601f0160208091040260200160405190810160405280939291908181526020018383808284375f920191909152508693925050611b419050565b6001600160a01b0381165f9081526020819052604090205490915060ff166113fb57604051634284a17d60e01b815260040160405180910390fd5b6046881161141c57604051638f9872e360e01b815260040160405180910390fd5b5f61142689611b6b565b90508060028b60ff166005811061143f5761143f61214c565b600402016001015410156114665760405163070f6eed60e11b815260040160405180910390fd5b60198054905f61147583612173565b9091555050601a80545f918261148a83612173565b909155506040805160a08101825260ff808f16825260208083018f815242848601908152606085018981525f60808701818152898252601b90955287902095518654951660ff19958616178655915160018601555160028501555160038401555160049092018054921515929091169190911790555190915081907f014d941e9f383d2e10aba8f5735dff00dc65585d6998e4a1366b8afb2db315549061154c908e908e90879060ff9390931683526020830191909152604082015260600190565b60405180910390a261155d81611bab565b5050505050505050505050565b335f9081526017602052604090205460ff16611599576040516394484cb360e01b815260040160405180910390fd5b345f036115b9576040516356316e8760e01b815260040160405180910390fd5b335f9081526016602052604090205460ff1634600282600581106115df576115df61214c565b600402016001015f8282546115f49190612139565b90915550506040805133815234602082015260ff8316917fdf579713dc5e1365236e32a311de62e14a718d48397680deab3be0f9f9f0d693910160405180910390a250565b336001600160a01b037f0000000000000000000000000000000000000000000000000000000000000000161461168257604051633823bd6160e11b815260040160405180910390fd5b6001600160a01b0381166116a95760405163d92e233d60e01b815260040160405180910390fd5b6001600160a01b0381165f9081526020819052604090205460ff16156116e257604051633295224f60e11b815260040160405180910390fd5b6001600160a01b0381165f908152602081905260408120805460ff1916600190811790915580549161171383612173565b90915550506040516001600160a01b038216907e47706786c922d17b39285dc59d696bafea72c0b003d3841ae1202076f4c2e4905f90a250565b601a54811061176f57604051634e1961b160e01b815260040160405180910390fd5b5f818152601b60205260409020600481015460ff16156117a257604051634dcfa42d60e01b815260040160405180910390fd5b6201518081600201546117b59190612139565b42116117d457604051630639559160e01b815260040160405180910390fd5b5f828152601c60205260409020600181015460ff161561180757604051630c6a96d960e01b815260040160405180910390fd5b6001818101805460ff19169091179055815481546118289160ff1690611a5c565b60405183907f85de091be18b1506795711e7cfa4b799aa13315833d24c8f92af184dad042098905f90a2505050565b336001600160a01b037f000000000000000000000000000000000000000000000000000000000000000016146118a057604051633823bd6160e11b815260040160405180910390fd5b6001600160a01b0381165f9081526020819052604090205460ff166118d857604051630b0a0e0d60e21b815260040160405180910390fd5b60018054116118fa5760405163fcb5936360e01b815260040160405180910390fd5b6001600160a01b0381165f908152602081905260408120805460ff19169055600180549161192783612225565b90915550506040516001600160a01b038216907f9c8e7d83025bef8a04c664b2f753f64b8814bdb7e27291d7e50935f18cc3c712905f90a250565b5f818152601e6020908152604080832080548452601b8352818420601c90935290832082549193909160ff16905b600560ff82161015611a0f578160ff168160ff16141580156119cf575060028160ff16600581106119c3576119c361214c565b600402016003015460ff165b15611a07578254600260ff8316600581106119ec576119ec61214c565b600402016002015f828254611a019190612160565b90915550505b600101611990565b506001828101805460ff191690911790556003830154600260ff831660058110611a3b57611a3b61214c565b600402016001015f828254611a509190612139565b90915550505050505050565b5f5b600560ff82161015611b0e578260ff168160ff1614158015611a9d575060028160ff1660058110611a9157611a9161214c565b600402016003015460ff165b15611b06578160028260ff1660058110611ab957611ab961214c565b600402016002015f828254611ace9190612160565b90915550829050600260ff831660058110611aeb57611aeb61214c565b600402016001015f828254611b009190612139565b90915550505b600101611a5e565b505050565b611b1b611d22565b60027f9b779b17422d0df92223018b32b4d1fa46e071723d6817e2486d003becc55f0055565b5f805f80611b4f8686611d64565b925092509250611b5f8282611dad565b50909150505b92915050565b5f6064821115611b84575067058d15e176280000919050565b6055821115611b9c5750670429d069189e0000919050565b506702c68af0bb140000919050565b5f818152601b602052604090208054600382015460ff9091169060028260058110611bd857611bd861214c565b600402016001015f828254611bed9190612160565b90915550506018545f90611c069060019060ff1661223a565b60ff168360030154611c1891906121e8565b90505f5b600560ff82161015611c9a578260ff168160ff1614158015611c5b575060028160ff1660058110611c4f57611c4f61214c565b600402016003015460ff165b15611c92578160028260ff1660058110611c7757611c7761214c565b600402016002015f828254611c8c9190612139565b90915550505b600101611c1c565b506040805180820182528281525f6020808301828152888352601c8252918490209251835590516001909201805460ff1916921515929092179091556003850154825160ff861681529182015290810182905284907fcbfdcc00384817b33344a44e3012321f2038b7ab7106ef4e8514a6b7e2f2fb549060600160405180910390a250505050565b7f9b779b17422d0df92223018b32b4d1fa46e071723d6817e2486d003becc55f0054600203610fd357604051633ee5aeb560e01b815260040160405180910390fd5b5f805f8351604103611d9b576020840151604085015160608601515f1a611d8d88828585611e6e565b955095509550505050611da6565b505081515f91506002905b9250925092565b5f826003811115611dc057611dc0612253565b03611dc9575050565b6001826003811115611ddd57611ddd612253565b03611dfb5760405163f645eedf60e01b815260040160405180910390fd5b6002826003811115611e0f57611e0f612253565b03611e355760405163fce698f760e01b8152600481018290526024015b60405180910390fd5b6003826003811115611e4957611e49612253565b03611e6a576040516335e2f38360e21b815260048101829052602401611e2c565b5050565b5f80807f7fffffffffffffffffffffffffffffff5d576e7357a4501ddfe92f46681b20a0841115611ea757505f91506003905082611f2c565b604080515f808252602082018084528a905260ff891692820192909252606081018790526080810186905260019060a0016020604051602081039080840390855afa158015611ef8573d5f803e3d5ffd5b5050604051601f1901519150506001600160a01b038116611f2357505f925060019150829050611f2c565b92505f91508190505b9450945094915050565b5f60208284031215611f46575f80fd5b5035919050565b5f8083601f840112611f5d575f80fd5b50813567ffffffffffffffff811115611f74575f80fd5b602083019150836020828501011115611f8b575f80fd5b9250929050565b5f805f60408486031215611fa4575f80fd5b83359250602084013567ffffffffffffffff811115611fc1575f80fd5b611fcd86828701611f4d565b9497909650939450505050565b803560ff81168114611fea575f80fd5b919050565b80356001600160a01b0381168114611fea575f80fd5b5f8060408385031215612016575f80fd5b61201f83611fda565b915061202d60208401611fef565b90509250929050565b5f60208284031215612046575f80fd5b61204f82611fef565b9392505050565b5f8060408385031215612067575f80fd5b8235915061202d60208401611fef565b5f60208284031215612087575f80fd5b61204f82611fda565b5f80604083850312156120a1575f80fd5b82359150602083013580151581146120b7575f80fd5b809150509250929050565b5f805f805f608086880312156120d6575f80fd5b6120df86611fda565b94506020860135935060408601359250606086013567ffffffffffffffff811115612108575f80fd5b61211488828901611f4d565b969995985093965092949392505050565b634e487b7160e01b5f52601160045260245ffd5b80820180821115611b6557611b65612125565b634e487b7160e01b5f52603260045260245ffd5b81810381811115611b6557611b65612125565b5f6001820161218457612184612125565b5060010190565b8481526001600160a01b03841660208201526060604082018190528101829052818360808301375f818301608090810191909152601f909201601f191601019392505050565b8082028115828204841417611b6557611b65612125565b5f8261220257634e487b7160e01b5f52601260045260245ffd5b500490565b5f60ff821660ff810361221c5761221c612125565b60010192915050565b5f8161223357612233612125565b505f190190565b60ff8281168282160390811115611b6557611b65612125565b634e487b7160e01b5f52602160045260245ffdfea264697066735822122016e9fd8ce8b2902b54897a3b25dd09b171a8d502efb5f9bcd4389f675460cc7e64736f6c63430008180033","linkReferences":{}},"methodIdentifiers":{"APPEAL_FEE()":"d7eb6929","APPEAL_WINDOW()":"f269a21e","MAX_ROOMS()":"427eaabb","MINIMUM_DEPOSIT()":"f19451d8","NOISE_THRESHOLD_DB()":"8f3d4e9c","PENALTY_HIGH()":"aa320e6a","PENALTY_LOW()":"de190123","PENALTY_MED()":"c293437c","VOTE_PASS_THRESHOLD()":"9b604b0b","VOTE_QUORUM()":"c7761fab","addOracle(address)":"df5dd1a5","addressToRoom(address)":"c101656a","createAppeal(uint256,string)":"0a6387fd","deposit()":"d0e30db0","executeProposal(uint256)":"0d61b519","getDeposit(uint8)":"c7e38cb4","getVotes(uint256)":"ff981099","hasVoted(uint256,address)":"43859632","isDepositSufficient(uint8)":"bff07463","isOracle(address)":"a97e5c93","isTenant(address)":"37f2e48a","landlord()":"dc1997ea","oracleCount()":"613d8fcc","proposalCount()":"da35c664","proposals(uint256)":"013cf08b","registerTenant(uint8,address)":"267dcb80","releaseRewards(uint256)":"f8703bb8","removeOracle(address)":"fdc85fc4","reportNoise(uint8,uint256,uint256,bytes)":"cb3655ca","reportNonce()":"85bc0c59","tenantCount()":"1307430a","tenants(uint256)":"bd2ba85d","violationCount()":"52388941","violationLocks(uint256)":"6de5b758","violations(uint256)":"b995bb95","vote(uint256,bool)":"c9d27afe","withdraw()":"3ccfd60b"},"id":29}