{"abi":[{"type":"constructor","inputs":[{"name":"initialOracle","type":"address","internalType":"address"}],"stateMutability":"nonpayable"},{"type":"function","name":"APPEAL_FEE","inputs":[],"outputs":[{"name":"","type":"uint256","internalType":"uint256"}],"stateMutability":"view"},{"type":"function","name":"APPEAL_WINDOW","inputs":[],"outputs":[{"name":"","type":"uint256","internalType":"uint256"}],"stateMutability":"view"},{"type":"function","name":"MAX_ROOMS","inputs":[],"outputs":[{"name":"","type":"uint8","internalType":"uint8"}],"stateMutability":"view"},{"type":"function","name":"MINIMUM_DEPOSIT","inputs":[],"outputs":[{"name":"","type":"uint256","internalType":"uint256"}],"stateMutability":"view"},{"type":"function","name":"NOISE_THRESHOLD_DB","inputs":[],"outputs":[{"name":"","type":"uint256","internalType":"uint256"}],"stateMutability":"view"},{"type":"function","name":"PENALTY_TIER1","inputs":[],"outputs":[{"name":"","type":"uint256","internalType":"uint256"}],"stateMutability":"view"},{"type":"function","name":"PENALTY_TIER2","inputs":[],"outputs":[{"name":"","type":"uint256","internalType":"uint256"}],"stateMutability":"view"},{"type":"function","name":"PENALTY_TIER3","inputs":[],"outputs":[{"name":"","type":"uint256","internalType":"uint256"}],"stateMutability":"view"},{"type":"function","name":"VOICE_CREDITS","inputs":[],"outputs":[{"name":"","type":"uint256","internalType":"uint256"}],"stateMutability":"view"},{"type":"function","name":"VOTE_PASS_THRESHOLD","inputs":[],"outputs":[{"name":"","type":"uint256","internalType":"uint256"}],"stateMutability":"view"},{"type":"function","name":"VOTE_QUORUM","inputs":[],"outputs":[{"name":"","type":"uint256","internalType":"uint256"}],"stateMutability":"view"},{"type":"function","name":"addOracle","inputs":[{"name":"newOracle","type":"address","internalType":"address"}],"outputs":[],"stateMutability":"nonpayable"},{"type":"function","name":"addressToRoom","inputs":[{"name":"","type":"address","internalType":"address"}],"outputs":[{"name":"","type":"uint8","internalType":"uint8"}],"stateMutability":"view"},{"type":"function","name":"createAppeal","inputs":[{"name":"violationId","type":"uint256","internalType":"uint256"},{"name":"reason","type":"string","internalType":"string"}],"outputs":[],"stateMutability":"nonpayable"},{"type":"function","name":"creditsUsed","inputs":[{"name":"","type":"uint256","internalType":"uint256"},{"name":"","type":"address","internalType":"address"}],"outputs":[{"name":"","type":"uint256","internalType":"uint256"}],"stateMutability":"view"},{"type":"function","name":"deposit","inputs":[],"outputs":[],"stateMutability":"payable"},{"type":"function","name":"executeProposal","inputs":[{"name":"proposalId","type":"uint256","internalType":"uint256"}],"outputs":[],"stateMutability":"nonpayable"},{"type":"function","name":"getDeposit","inputs":[{"name":"roomIndex","type":"uint8","internalType":"uint8"}],"outputs":[{"name":"free","type":"uint256","internalType":"uint256"},{"name":"locked","type":"uint256","internalType":"uint256"}],"stateMutability":"view"},{"type":"function","name":"getVotes","inputs":[{"name":"proposalId","type":"uint256","internalType":"uint256"}],"outputs":[{"name":"yes","type":"uint256","internalType":"uint256"},{"name":"no","type":"uint256","internalType":"uint256"}],"stateMutability":"view"},{"type":"function","name":"hasVoted","inputs":[{"name":"","type":"uint256","internalType":"uint256"},{"name":"","type":"address","internalType":"address"}],"outputs":[{"name":"","type":"bool","internalType":"bool"}],"stateMutability":"view"},{"type":"function","name":"isDepositSufficient","inputs":[{"name":"roomIndex","type":"uint8","internalType":"uint8"}],"outputs":[{"name":"","type":"bool","internalType":"bool"}],"stateMutability":"view"},{"type":"function","name":"isOracle","inputs":[{"name":"","type":"address","internalType":"address"}],"outputs":[{"name":"","type":"bool","internalType":"bool"}],"stateMutability":"view"},{"type":"function","name":"isTenant","inputs":[{"name":"","type":"address","internalType":"address"}],"outputs":[{"name":"","type":"bool","internalType":"bool"}],"stateMutability":"view"},{"type":"function","name":"landlord","inputs":[],"outputs":[{"name":"","type":"address","internalType":"address"}],"stateMutability":"view"},{"type":"function","name":"landlordLockedRewards","inputs":[],"outputs":[{"name":"","type":"uint256","internalType":"uint256"}],"stateMutability":"view"},{"type":"function","name":"landlordRewards","inputs":[],"outputs":[{"name":"","type":"uint256","internalType":"uint256"}],"stateMutability":"view"},{"type":"function","name":"oracleCount","inputs":[],"outputs":[{"name":"","type":"uint256","internalType":"uint256"}],"stateMutability":"view"},{"type":"function","name":"proposalCount","inputs":[],"outputs":[{"name":"","type":"uint256","internalType":"uint256"}],"stateMutability":"view"},{"type":"function","name":"proposals","inputs":[{"name":"","type":"uint256","internalType":"uint256"}],"outputs":[{"name":"violationId","type":"uint256","internalType":"uint256"},{"name":"appellant","type":"address","internalType":"address"},{"name":"createdAt","type":"uint256","internalType":"uint256"},{"name":"yesVotes","type":"uint256","internalType":"uint256"},{"name":"noVotes","type":"uint256","internalType":"uint256"},{"name":"voterCount","type":"uint256","internalType":"uint256"},{"name":"executed","type":"bool","internalType":"bool"},{"name":"passed","type":"bool","internalType":"bool"}],"stateMutability":"view"},{"type":"function","name":"registerTenant","inputs":[{"name":"roomIndex","type":"uint8","internalType":"uint8"},{"name":"tenantAddr","type":"address","internalType":"address"}],"outputs":[],"stateMutability":"nonpayable"},{"type":"function","name":"releaseRewards","inputs":[{"name":"violationId","type":"uint256","internalType":"uint256"}],"outputs":[],"stateMutability":"nonpayable"},{"type":"function","name":"removeOracle","inputs":[{"name":"target","type":"address","internalType":"address"}],"outputs":[],"stateMutability":"nonpayable"},{"type":"function","name":"reportNoise","inputs":[{"name":"roomIndex","type":"uint8","internalType":"uint8"},{"name":"decibels","type":"uint256","internalType":"uint256"},{"name":"nonce","type":"uint256","internalType":"uint256"},{"name":"signature","type":"bytes","internalType":"bytes"}],"outputs":[],"stateMutability":"nonpayable"},{"type":"function","name":"reportNonce","inputs":[],"outputs":[{"name":"","type":"uint256","internalType":"uint256"}],"stateMutability":"view"},{"type":"function","name":"tenantCount","inputs":[],"outputs":[{"name":"","type":"uint8","internalType":"uint8"}],"stateMutability":"view"},{"type":"function","name":"tenantViolationCount","inputs":[{"name":"","type":"address","internalType":"address"}],"outputs":[{"name":"","type":"uint256","internalType":"uint256"}],"stateMutability":"view"},{"type":"function","name":"tenants","inputs":[{"name":"","type":"uint256","internalType":"uint256"}],"outputs":[{"name":"addr","type":"address","internalType":"address"},{"name":"deposit","type":"uint256","internalType":"uint256"},{"name":"lockedDeposit","type":"uint256","internalType":"uint256"},{"name":"registered","type":"bool","internalType":"bool"}],"stateMutability":"view"},{"type":"function","name":"violationCount","inputs":[],"outputs":[{"name":"","type":"uint256","internalType":"uint256"}],"stateMutability":"view"},{"type":"function","name":"violationLocks","inputs":[{"name":"","type":"uint256","internalType":"uint256"}],"outputs":[{"name":"rewardPerRecipient","type":"uint256","internalType":"uint256"},{"name":"released","type":"bool","internalType":"bool"}],"stateMutability":"view"},{"type":"function","name":"violations","inputs":[{"name":"","type":"uint256","internalType":"uint256"}],"outputs":[{"name":"roomIndex","type":"uint8","internalType":"uint8"},{"name":"decibels","type":"uint256","internalType":"uint256"},{"name":"reportedAt","type":"uint256","internalType":"uint256"},{"name":"penaltyPaid","type":"uint256","internalType":"uint256"},{"name":"appealed","type":"bool","internalType":"bool"}],"stateMutability":"view"},{"type":"function","name":"vote","inputs":[{"name":"proposalId","type":"uint256","internalType":"uint256"},{"name":"approve","type":"bool","internalType":"bool"},{"name":"voteCount","type":"uint256","internalType":"uint256"}],"outputs":[],"stateMutability":"nonpayable"},{"type":"function","name":"withdraw","inputs":[],"outputs":[],"stateMutability":"nonpayable"},{"type":"function","name":"withdrawLandlordRewards","inputs":[],"outputs":[],"stateMutability":"nonpayable"},{"type":"event","name":"AppealCreated","inputs":[{"name":"proposalId","type":"uint256","indexed":true,"internalType":"uint256"},{"name":"violationId","type":"uint256","indexed":false,"internalType":"uint256"},{"name":"appellant","type":"address","indexed":false,"internalType":"address"},{"name":"reason","type":"string","indexed":false,"internalType":"string"}],"anonymous":false},{"type":"event","name":"Deposited","inputs":[{"name":"roomIndex","type":"uint8","indexed":true,"internalType":"uint8"},{"name":"tenant","type":"address","indexed":false,"internalType":"address"},{"name":"amount","type":"uint256","indexed":false,"internalType":"uint256"}],"anonymous":false},{"type":"event","name":"LandlordRewardsWithdrawn","inputs":[{"name":"landlord","type":"address","indexed":true,"internalType":"address"},{"name":"amount","type":"uint256","indexed":false,"internalType":"uint256"}],"anonymous":false},{"type":"event","name":"NoiseReported","inputs":[{"name":"violationId","type":"uint256","indexed":true,"internalType":"uint256"},{"name":"roomIndex","type":"uint8","indexed":false,"internalType":"uint8"},{"name":"decibels","type":"uint256","indexed":false,"internalType":"uint256"},{"name":"penalty","type":"uint256","indexed":false,"internalType":"uint256"}],"anonymous":false},{"type":"event","name":"OracleAdded","inputs":[{"name":"oracle","type":"address","indexed":true,"internalType":"address"}],"anonymous":false},{"type":"event","name":"OracleRemoved","inputs":[{"name":"oracle","type":"address","indexed":true,"internalType":"address"}],"anonymous":false},{"type":"event","name":"PenaltyApplied","inputs":[{"name":"violationId","type":"uint256","indexed":true,"internalType":"uint256"},{"name":"offenderRoom","type":"uint8","indexed":false,"internalType":"uint8"},{"name":"penaltyAmount","type":"uint256","indexed":false,"internalType":"uint256"},{"name":"rewardPerRecipient","type":"uint256","indexed":false,"internalType":"uint256"}],"anonymous":false},{"type":"event","name":"ProposalExecuted","inputs":[{"name":"proposalId","type":"uint256","indexed":true,"internalType":"uint256"},{"name":"passed","type":"bool","indexed":false,"internalType":"bool"}],"anonymous":false},{"type":"event","name":"RewardsReleased","inputs":[{"name":"violationId","type":"uint256","indexed":true,"internalType":"uint256"}],"anonymous":false},{"type":"event","name":"TenantRegistered","inputs":[{"name":"roomIndex","type":"uint8","indexed":true,"internalType":"uint8"},{"name":"tenant","type":"address","indexed":false,"internalType":"address"}],"anonymous":false},{"type":"event","name":"VoteCast","inputs":[{"name":"proposalId","type":"uint256","indexed":true,"internalType":"uint256"},{"name":"voter","type":"address","indexed":false,"internalType":"address"},{"name":"approve","type":"bool","indexed":false,"internalType":"bool"},{"name":"voteCount","type":"uint256","indexed":false,"internalType":"uint256"}],"anonymous":false},{"type":"event","name":"Withdrawn","inputs":[{"name":"roomIndex","type":"uint8","indexed":true,"internalType":"uint8"},{"name":"tenant","type":"address","indexed":false,"internalType":"address"},{"name":"amount","type":"uint256","indexed":false,"internalType":"uint256"}],"anonymous":false},{"type":"error","name":"AlreadyAppealed","inputs":[]},{"type":"error","name":"AlreadyExecuted","inputs":[]},{"type":"error","name":"AlreadyRegistered","inputs":[]},{"type":"error","name":"AlreadyVoted","inputs":[]},{"type":"error","name":"AppealWindowClosed","inputs":[]},{"type":"error","name":"AppealWindowStillOpen","inputs":[]},{"type":"error","name":"AppellantCannotVote","inputs":[]},{"type":"error","name":"BelowNoiseThreshold","inputs":[]},{"type":"error","name":"ECDSAInvalidSignature","inputs":[]},{"type":"error","name":"ECDSAInvalidSignatureLength","inputs":[{"name":"length","type":"uint256","internalType":"uint256"}]},{"type":"error","name":"ECDSAInvalidSignatureS","inputs":[{"name":"s","type":"bytes32","internalType":"bytes32"}]},{"type":"error","name":"InsufficientCredits","inputs":[]},{"type":"error","name":"InsufficientDeposit","inputs":[]},{"type":"error","name":"InsufficientDepositForFee","inputs":[]},{"type":"error","name":"InvalidNonce","inputs":[]},{"type":"error","name":"InvalidRoom","inputs":[]},{"type":"error","name":"InvalidVoteCount","inputs":[]},{"type":"error","name":"MinOraclesRequired","inputs":[]},{"type":"error","name":"NotAnOracle","inputs":[]},{"type":"error","name":"NotEligibleToVote","inputs":[]},{"type":"error","name":"NotLandlord","inputs":[]},{"type":"error","name":"NotTenant","inputs":[]},{"type":"error","name":"NotThePenalizedTenant","inputs":[]},{"type":"error","name":"NothingToWithdraw","inputs":[]},{"type":"error","name":"OracleAlreadyAdded","inputs":[]},{"type":"error","name":"OracleNotFound","inputs":[]},{"type":"error","name":"ProposalNotFound","inputs":[]},{"type":"error","name":"QuorumNotReached","inputs":[]},{"type":"error","name":"ReentrancyGuardReentrantCall","inputs":[]},{"type":"error","name":"RewardsAlreadyReleased","inputs":[]},{"type":"error","name":"RoomOccupied","inputs":[]},{"type":"error","name":"TransferFailed","inputs":[]},{"type":"error","name":"ViolationNotFound","inputs":[]},{"type":"error","name":"VotingClosed","inputs":[]},{"type":"error","name":"VotingStillOpen","inputs":[]},{"type":"error","name":"ZeroAddress","inputs":[]},{"type":"error","name":"ZeroDeposit","inputs":[]}],"bytecode":{"object":"0x60a060405234801562000010575f80fd5b506040516200285e3803806200285e8339810160408190526200003391620000d7565b60017f9b779b17422d0df92223018b32b4d1fa46e071723d6817e2486d003becc55f00556001600160a01b0381166200007f5760405163d92e233d60e01b815260040160405180910390fd5b336080526001600160a01b0381165f81815260026020526040808220805460ff19166001908117909155600355517e47706786c922d17b39285dc59d696bafea72c0b003d3841ae1202076f4c2e49190a25062000106565b5f60208284031215620000e8575f80fd5b81516001600160a01b0381168114620000ff575f80fd5b9392505050565b60805161271c620001425f395f81816107ed01528181610c3801528181610ff201528181611638015281816118da0152611af6015261271c5ff3fe608060405260043610610254575f3560e01c8063a97e5c931161013f578063d46a5d7e116100b3578063df5dd1a511610078578063df5dd1a514610841578063f19451d814610827578063f269a21e14610860578063f8703bb814610875578063fdc85fc414610894578063ff981099146108b3575f80fd5b8063d46a5d7e1461078e578063d7eb6929146107ad578063da35c664146107c7578063dc1997ea146107dc578063dd19e70114610827575f80fd5b8063c101656a11610104578063c101656a146106dd578063c7761fab1461070b578063c7e38cb41461071f578063cb3655ca14610753578063d0e30db014610772578063d3ee3b941461077a575f80fd5b8063a97e5c93146105b0578063b4454d46146105de578063b995bb95146105f8578063bd2ba85d14610673578063bff07463146106be575f80fd5b806343859632116101d6578063716ccf421161019b578063716ccf42146105305780637d6e13691461054457806385bc0c59146105595780638f3d4e9c1461056e578063902da329146105825780639b604b0b1461059c575f80fd5b8063438596321461046f57806352388941146104a8578063613d8fcc146104bd5780636536b215146104d25780636de5b758146104e6575f80fd5b806322be21bd1161021c57806322be21bd146103b4578063267dcb80146103ea57806337f2e48a146104095780633ccfd60b14610447578063427eaabb1461045b575f80fd5b8063013cf08b146102585780630a6387fd146103105780630d61b5191461033157806311bdd39b146103505780631307430a14610389575b5f80fd5b348015610263575f80fd5b506102c4610272366004612395565b60216020525f9081526040902080546001820154600283015460038401546004850154600586015460069096015494956001600160a01b03909416949293919290919060ff8082169161010090041688565b604080519889526001600160a01b039097166020890152958701949094526060860192909252608085015260a0840152151560c0830152151560e0820152610100015b60405180910390f35b34801561031b575f80fd5b5061032f61032a3660046123f1565b6108e9565b005b34801561033c575f80fd5b5061032f61034b366004612395565b610b7a565b34801561035b575f80fd5b5061037b61036a366004612454565b601f6020525f908152604090205481565b604051908152602001610307565b348015610394575f80fd5b50601a546103a29060ff1681565b60405160ff9091168152602001610307565b3480156103bf575f80fd5b5061037b6103ce36600461246d565b602360209081525f928352604080842090915290825290205481565b3480156103f5575f80fd5b5061032f6104043660046124a7565b610c2d565b348015610414575f80fd5b50610437610423366004612454565b60196020525f908152604090205460ff1681565b6040519015158152602001610307565b348015610452575f80fd5b5061032f610e82565b348015610466575f80fd5b506103a2600581565b34801561047a575f80fd5b5061043761048936600461246d565b602260209081525f928352604080842090915290825290205460ff1681565b3480156104b3575f80fd5b5061037b601c5481565b3480156104c8575f80fd5b5061037b60035481565b3480156104dd575f80fd5b5061037b5f5481565b3480156104f1575f80fd5b5061051b610500366004612395565b601e6020525f90815260409020805460019091015460ff1682565b60408051928352901515602083015201610307565b34801561053b575f80fd5b5061032f610fe7565b34801561054f575f80fd5b5061037b60015481565b348015610564575f80fd5b5061037b601b5481565b348015610579575f80fd5b5061037b604681565b34801561058d575f80fd5b5061037b66071afd498d000081565b3480156105a7575f80fd5b5061037b603c81565b3480156105bb575f80fd5b506104376105ca366004612454565b60026020525f908152604090205460ff1681565b3480156105e9575f80fd5b5061037b66038d7ea4c6800081565b348015610603575f80fd5b50610645610612366004612395565b601d6020525f90815260409020805460018201546002830154600384015460049094015460ff9384169492939192911685565b6040805160ff909616865260208601949094529284019190915260608301521515608082015260a001610307565b34801561067e575f80fd5b5061069261068d366004612395565b611112565b604080516001600160a01b03909516855260208501939093529183015215156060820152608001610307565b3480156106c9575f80fd5b506104376106d83660046124cf565b61114c565b3480156106e8575f80fd5b506103a26106f7366004612454565b60186020525f908152604090205460ff1681565b348015610716575f80fd5b5061037b600381565b34801561072a575f80fd5b5061073e6107393660046124cf565b6111a2565b60408051928352602083019190915201610307565b34801561075e575f80fd5b5061032f61076d3660046124e8565b6111fb565b61032f611544565b348015610785575f80fd5b5061037b600981565b348015610799575f80fd5b5061032f6107a836600461254b565b611613565b3480156107b8575f80fd5b5061037b662386f26fc1000081565b3480156107d2575f80fd5b5061037b60205481565b3480156107e7575f80fd5b5061080f7f000000000000000000000000000000000000000000000000000000000000000081565b6040516001600160a01b039091168152602001610307565b348015610832575f80fd5b5061037b660e35fa931a000081565b34801561084c575f80fd5b5061032f61085b366004612454565b6118cf565b34801561086b575f80fd5b5061037b61012c81565b348015610880575f80fd5b5061032f61088f366004612395565b6119e2565b34801561089f575f80fd5b5061032f6108ae366004612454565b611aeb565b3480156108be575f80fd5b5061073e6108cd366004612395565b5f90815260216020526040902060038101546004909101549091565b335f9081526019602052604090205460ff16610918576040516394484cb360e01b815260040160405180910390fd5b601c54831061093a57604051634e1961b160e01b815260040160405180910390fd5b5f838152601d60205260409020600481015460ff161561096d57604051634dcfa42d60e01b815260040160405180910390fd5b61012c816002015461097f9190612598565b42111561099f57604051637401943d60e01b815260040160405180910390fd5b335f90815260186020526040902054815460ff918216911681146109d657604051631eddb72360e01b815260040160405180910390fd5b662386f26fc1000060048260ff16600581106109f4576109f46125ab565b60040201600101541015610a1b57604051634307168b60e01b815260040160405180910390fd5b662386f26fc1000060048260ff1660058110610a3957610a396125ab565b600402016001015f828254610a4e91906125bf565b909155505060048201805460ff19166001179055602080545f9182610a72836125d2565b90915550604080516101008082018352898252336020808401828152428587019081525f606087018181526080880182815260a0890183815260c08a0184815260e08b018581528d86526021909852938b902099518a55945160018a0180546001600160a01b0319166001600160a01b039092169190911790559251600289015551600388015590516004870155905160058601555160069094018054915161ffff1990921694151561ff0019169490941790151590920291909117909155905191925082917fb7a91f9be8dd2f390d57130458eaeb3bba513360bb1de6eeb9c5dedfcd2043e791610b6a918a91908a908a906125ea565b60405180910390a2505050505050565b6020548110610b9c5760405163635e873760e01b815260040160405180910390fd5b5f818152602160205260409020600681015460ff1615610bcf57604051630dc1019760e01b815260040160405180910390fd5b5f610bd983611bf7565b82600501541015905061012c8260020154610bf49190612598565b4211158015610c01575080155b15610c1f576040516388c081c760e01b815260040160405180910390fd5b610c2883611c55565b505050565b336001600160a01b037f00000000000000000000000000000000000000000000000000000000000000001614610c7657604051633823bd6160e11b815260040160405180910390fd5b81600560ff821610610c9b5760405163353cbf1760e01b815260040160405180910390fd5b60048360ff1660058110610cb157610cb16125ab565b600402016003015460ff1615610cda5760405163058f935b60e51b815260040160405180910390fd5b6001600160a01b038216610d015760405163d92e233d60e01b815260040160405180910390fd5b6001600160a01b0382165f9081526019602052604090205460ff1615610d3a57604051630ea075bf60e21b815260040160405180910390fd5b6040518060800160405280836001600160a01b031681526020015f81526020015f81526020016001151581525060048460ff1660058110610d7d57610d7d6125ab565b82516004919091029190910180546001600160a01b039283166001600160a01b031990911617815560208084015160018084019190915560408086015160028501556060909501516003909301805493151560ff199485161790559286165f90815260188252848120805460ff8a811691861691909117909155601990925293842080549092169092179055601a805490911691610e1a83612630565b91906101000a81548160ff021916908360ff160217905550508260ff167fbd41480adfea8634fc35f31094e6104dba4854a017ca9baee56a018addf6ceae83604051610e7591906001600160a01b0391909116815260200190565b60405180910390a2505050565b335f9081526019602052604090205460ff16610eb1576040516394484cb360e01b815260040160405180910390fd5b610eb9611d8a565b335f9081526018602052604081205460ff169060048260058110610edf57610edf6125ab565b60040201600101549050805f03610f0957604051630686827b60e51b815260040160405180910390fd5b5f60048360ff1660058110610f2057610f206125ab565b6004020160010155604080513381526020810183905260ff8416917f3a2db7d2315c2162d4f47c295f514b5aacf84592e024bc529868af8d776567f7910160405180910390a26040515f90339083908381818185875af1925050503d805f8114610fa5576040519150601f19603f3d011682016040523d82523d5f602084013e610faa565b606091505b5050905080610fcc576040516312171d8360e31b815260040160405180910390fd5b505050610fe560015f805160206126c783398151915255565b565b336001600160a01b037f0000000000000000000000000000000000000000000000000000000000000000161461103057604051633823bd6160e11b815260040160405180910390fd5b611038611d8a565b5f80549081900361105c57604051630686827b60e51b815260040160405180910390fd5b5f805560405181815233907f7eb553f887485c2e7513f9cf0b4570c1bc8666176cddb2ff7c133fe0ce04a4ea9060200160405180910390a26040515f90339083908381818185875af1925050503d805f81146110d3576040519150601f19603f3d011682016040523d82523d5f602084013e6110d8565b606091505b50509050806110fa576040516312171d8360e31b815260040160405180910390fd5b5050610fe560015f805160206126c783398151915255565b60048160058110611121575f80fd5b600402018054600182015460028301546003909301546001600160a01b039092169350919060ff1684565b5f81600560ff8216106111725760405163353cbf1760e01b815260040160405180910390fd5b660e35fa931a000060048460ff1660058110611190576111906125ab565b60040201600101541015915050919050565b5f8082600560ff8216106111c95760405163353cbf1760e01b815260040160405180910390fd5b5f60048560ff16600581106111e0576111e06125ab565b60040201905080600101548160020154935093505050915091565b84600560ff8216106112205760405163353cbf1760e01b815260040160405180910390fd5b601b54841461124257604051633ab3447f60e11b815260040160405180910390fd5b60408051466020808301919091523060601b6bffffffffffffffffffffffff19168284015260f889901b6001600160f81b031916605483015260558201889052607580830188905283518084039091018152609590920190925280519101207f19457468657265756d205369676e6564204d6573736167653a0a3332000000005f908152601c829052603c812090505f61131386868080601f0160208091040260200160405190810160405280939291908181526020018383808284375f920191909152508693925050611da59050565b6001600160a01b0381165f9081526002602052604090205490915060ff1661134e57604051634284a17d60e01b815260040160405180910390fd5b6046881161136f57604051638f9872e360e01b815260040160405180910390fd5b5f60048a60ff1660058110611386576113866125ab565b60040201546001600160a01b03165f818152601f602052604081208054929350906113b0836125d2565b90915550506001600160a01b0381165f908152601f60205260408120546113d690611dcf565b90508060048c60ff16600581106113ef576113ef6125ab565b600402016001015410156114165760405163070f6eed60e11b815260040160405180910390fd5b601b8054905f611425836125d2565b9091555050601c80545f918261143a836125d2565b9190505590506040518060a001604052808d60ff1681526020018c81526020014281526020018381526020015f1515815250601d5f8381526020019081526020015f205f820151815f015f6101000a81548160ff021916908360ff1602179055506020820151816001015560408201518160020155606082015181600301556080820151816004015f6101000a81548160ff021916908315150217905550905050807f014d941e9f383d2e10aba8f5735dff00dc65585d6998e4a1366b8afb2db315548d8d856040516115259392919060ff9390931683526020830191909152604082015260600190565b60405180910390a261153681611e0a565b505050505050505050505050565b335f9081526019602052604090205460ff16611573576040516394484cb360e01b815260040160405180910390fd5b345f03611593576040516356316e8760e01b815260040160405180910390fd5b335f9081526018602052604090205460ff1634600482600581106115b9576115b96125ab565b600402016001015f8282546115ce9190612598565b90915550506040805133815234602082015260ff8316917fdf579713dc5e1365236e32a311de62e14a718d48397680deab3be0f9f9f0d693910160405180910390a250565b335f9081526019602052604090205460ff1615801561165b5750336001600160a01b037f00000000000000000000000000000000000000000000000000000000000000001614155b1561167957604051637fb16f1b60e01b815260040160405180910390fd5b602054831061169b5760405163635e873760e01b815260040160405180910390fd5b5f6116a6828061264e565b90508115806116b55750600981115b156116d357604051633a62e23760e21b815260040160405180910390fd5b5f848152602160205260409020600681015460ff161561170657604051630dc1019760e01b815260040160405180910390fd5b61012c81600201546117189190612598565b4211156117385760405163335b65a560e11b815260040160405180910390fd5b5f85815260226020908152604080832033845290915290205460ff161561177257604051637c9a1cf960e01b815260040160405180910390fd5b60018101546001600160a01b0316330361179f576040516303a7953360e31b815260040160405180910390fd5b5f8581526023602090815260408083203384529091529020546009906117c6908490612598565b11156117e5576040516343fb945360e01b815260040160405180910390fd5b5f85815260226020908152604080832033808552908352818420805460ff19166001179055888452602383528184209084529091528120805484929061182c908490612598565b9091555050600581018054905f611842836125d2565b9190505550831561186b5782816003015f8282546118609190612598565b909155506118849050565b82816004015f82825461187e9190612598565b90915550505b60408051338152851515602082015290810184905285907fcbdf6214089cba887ecbf35a0b6a734589959c9763342c756bb2a80ca2bc9f6e9060600160405180910390a25050505050565b336001600160a01b037f0000000000000000000000000000000000000000000000000000000000000000161461191857604051633823bd6160e11b815260040160405180910390fd5b6001600160a01b03811661193f5760405163d92e233d60e01b815260040160405180910390fd5b6001600160a01b0381165f9081526002602052604090205460ff161561197857604051633295224f60e11b815260040160405180910390fd5b6001600160a01b0381165f908152600260205260408120805460ff1916600117905560038054916119a8836125d2565b90915550506040516001600160a01b038216907e47706786c922d17b39285dc59d696bafea72c0b003d3841ae1202076f4c2e4905f90a250565b601c548110611a0457604051634e1961b160e01b815260040160405180910390fd5b5f818152601d60205260409020600481015460ff1615611a3757604051634dcfa42d60e01b815260040160405180910390fd5b61012c8160020154611a499190612598565b4211611a6857604051630639559160e01b815260040160405180910390fd5b5f828152601e60205260409020600181015460ff1615611a9b57604051630c6a96d960e01b815260040160405180910390fd5b6001818101805460ff1916909117905581548154611abc9160ff1690611f9e565b60405183907f85de091be18b1506795711e7cfa4b799aa13315833d24c8f92af184dad042098905f90a2505050565b336001600160a01b037f00000000000000000000000000000000000000000000000000000000000000001614611b3457604051633823bd6160e11b815260040160405180910390fd5b6001600160a01b0381165f9081526002602052604090205460ff16611b6c57604051630b0a0e0d60e21b815260040160405180910390fd5b600160035411611b8f5760405163fcb5936360e01b815260040160405180910390fd5b6001600160a01b0381165f908152600260205260408120805460ff191690556003805491611bbc83612665565b90915550506040516001600160a01b038216907f9c8e7d83025bef8a04c664b2f753f64b8814bdb7e27291d7e50935f18cc3c712905f90a250565b5f818152602160205260408120601a548290611c179060ff16600161267a565b60018301546001600160a01b03165f9081526019602052604090205460ff91821692501615611c4e57611c4b6001826125bf565b90505b9392505050565b5f818152602160205260409020600681015460ff1615611c8857604051630dc1019760e01b815260040160405180910390fd5b5f81600401548260030154611c9d9190612598565b90506003811015611cc15760405163aa26a69360e01b815260040160405180910390fd5b60068201805460ff19166001179055600482015460038301541115611cff5760068201805461ff001916610100179055611cfa83612082565b611d49565b81545f908152601d60209081526040808320601e909252909120600181015460ff16611d46576001818101805460ff1916909117905581548154611d469160ff1690611f9e565b50505b600682015460405161010090910460ff161515815283907f948f4a9cd986f1118c3fbd459f7a22b23c0693e1ca3ef06a6a8be5aa7d39cc0390602001610e75565b611d92612194565b60025f805160206126c783398151915255565b5f805f80611db386866121c3565b925092509250611dc3828261220c565b50909150505b92915050565b5f60058211611de6575066038d7ea4c68000919050565b600a8211611dfc575066071afd498d0000919050565b50660e35fa931a0000919050565b5f818152601d602052604090208054600382015460ff9091169060048260058110611e3757611e376125ab565b600402016001015f828254611e4c91906125bf565b9091555050601a545f9060ff1615611f0d57601a546003840154611e739160ff1690612693565b90505f5b600560ff82161015611ef5578260ff168160ff1614158015611eb6575060048160ff1660058110611eaa57611eaa6125ab565b600402016003015460ff165b15611eed578160048260ff1660058110611ed257611ed26125ab565b600402016002015f828254611ee79190612598565b90915550505b600101611e77565b508060015f828254611f079190612598565b90915550505b604080518082018252828152601a5460ff9081161560208084019182525f898152601e82528590209351845590516001909301805460ff1916931515939093179092556003860154835191861682529181019190915290810182905284907fcbfdcc00384817b33344a44e3012321f2038b7ab7106ef4e8514a6b7e2f2fb549060600160405180910390a250505050565b5f5b600560ff82161015612050578260ff168160ff1614158015611fdf575060048160ff1660058110611fd357611fd36125ab565b600402016003015460ff165b15612048578160048260ff1660058110611ffb57611ffb6125ab565b600402016002015f82825461201091906125bf565b90915550829050600460ff83166005811061202d5761202d6125ab565b600402016001015f8282546120429190612598565b90915550505b600101611fa0565b508060015f82825461206291906125bf565b92505081905550805f808282546120799190612598565b90915550505050565b5f81815260216020908152604080832080548452601d8352818420601e90935290832082549193909160ff16905b600560ff8216101561212f578160ff168160ff16141580156120ef575060048160ff16600581106120e3576120e36125ab565b600402016003015460ff165b15612127578254600460ff83166005811061210c5761210c6125ab565b600402016002015f82825461212191906125bf565b90915550505b6001016120b0565b508154600180545f906121439084906125bf565b90915550506001828101805460ff191690911790556003830154600460ff831660058110612173576121736125ab565b600402016001015f8282546121889190612598565b90915550505050505050565b5f805160206126c783398151915254600203610fe557604051633ee5aeb560e01b815260040160405180910390fd5b5f805f83516041036121fa576020840151604085015160608601515f1a6121ec888285856122cd565b955095509550505050612205565b505081515f91506002905b9250925092565b5f82600381111561221f5761221f6126b2565b03612228575050565b600182600381111561223c5761223c6126b2565b0361225a5760405163f645eedf60e01b815260040160405180910390fd5b600282600381111561226e5761226e6126b2565b036122945760405163fce698f760e01b8152600481018290526024015b60405180910390fd5b60038260038111156122a8576122a86126b2565b036122c9576040516335e2f38360e21b81526004810182905260240161228b565b5050565b5f80807f7fffffffffffffffffffffffffffffff5d576e7357a4501ddfe92f46681b20a084111561230657505f9150600390508261238b565b604080515f808252602082018084528a905260ff891692820192909252606081018790526080810186905260019060a0016020604051602081039080840390855afa158015612357573d5f803e3d5ffd5b5050604051601f1901519150506001600160a01b03811661238257505f92506001915082905061238b565b92505f91508190505b9450945094915050565b5f602082840312156123a5575f80fd5b5035919050565b5f8083601f8401126123bc575f80fd5b50813567ffffffffffffffff8111156123d3575f80fd5b6020830191508360208285010111156123ea575f80fd5b9250929050565b5f805f60408486031215612403575f80fd5b83359250602084013567ffffffffffffffff811115612420575f80fd5b61242c868287016123ac565b9497909650939450505050565b80356001600160a01b038116811461244f575f80fd5b919050565b5f60208284031215612464575f80fd5b611c4e82612439565b5f806040838503121561247e575f80fd5b8235915061248e60208401612439565b90509250929050565b803560ff8116811461244f575f80fd5b5f80604083850312156124b8575f80fd5b6124c183612497565b915061248e60208401612439565b5f602082840312156124df575f80fd5b611c4e82612497565b5f805f805f608086880312156124fc575f80fd5b61250586612497565b94506020860135935060408601359250606086013567ffffffffffffffff81111561252e575f80fd5b61253a888289016123ac565b969995985093965092949392505050565b5f805f6060848603121561255d575f80fd5b8335925060208401358015158114612573575f80fd5b929592945050506040919091013590565b634e487b7160e01b5f52601160045260245ffd5b80820180821115611dc957611dc9612584565b634e487b7160e01b5f52603260045260245ffd5b81810381811115611dc957611dc9612584565b5f600182016125e3576125e3612584565b5060010190565b8481526001600160a01b03841660208201526060604082018190528101829052818360808301375f818301608090810191909152601f909201601f191601019392505050565b5f60ff821660ff810361264557612645612584565b60010192915050565b8082028115828204841417611dc957611dc9612584565b5f8161267357612673612584565b505f190190565b60ff8181168382160190811115611dc957611dc9612584565b5f826126ad57634e487b7160e01b5f52601260045260245ffd5b500490565b634e487b7160e01b5f52602160045260245ffdfe9b779b17422d0df92223018b32b4d1fa46e071723d6817e2486d003becc55f00a264697066735822122002ce4b594290c541c04b1e4ffa0218119c8b13cce5057a3d73cb235973e1a47a64736f6c63430008180033","linkReferences":{}},"methodIdentifiers":{"APPEAL_FEE()":"d7eb6929","APPEAL_WINDOW()":"f269a21e","MAX_ROOMS()":"427eaabb","MINIMUM_DEPOSIT()":"f19451d8","NOISE_THRESHOLD_DB()":"8f3d4e9c","PENALTY_TIER1()":"b4454d46","PENALTY_TIER2()":"902da329","PENALTY_TIER3()":"dd19e701","VOICE_CREDITS()":"d3ee3b94","VOTE_PASS_THRESHOLD()":"9b604b0b","VOTE_QUORUM()":"c7761fab","addOracle(address)":"df5dd1a5","addressToRoom(address)":"c101656a","createAppeal(uint256,string)":"0a6387fd","creditsUsed(uint256,address)":"22be21bd","deposit()":"d0e30db0","executeProposal(uint256)":"0d61b519","getDeposit(uint8)":"c7e38cb4","getVotes(uint256)":"ff981099","hasVoted(uint256,address)":"43859632","isDepositSufficient(uint8)":"bff07463","isOracle(address)":"a97e5c93","isTenant(address)":"37f2e48a","landlord()":"dc1997ea","landlordLockedRewards()":"7d6e1369","landlordRewards()":"6536b215","oracleCount()":"613d8fcc","proposalCount()":"da35c664","proposals(uint256)":"013cf08b","registerTenant(uint8,address)":"267dcb80","releaseRewards(uint256)":"f8703bb8","removeOracle(address)":"fdc85fc4","reportNoise(uint8,uint256,uint256,bytes)":"cb3655ca","reportNonce()":"85bc0c59","tenantCount()":"1307430a","tenantViolationCount(address)":"11bdd39b","tenants(uint256)":"bd2ba85d","violationCount()":"52388941","violationLocks(uint256)":"6de5b758","violations(uint256)":"b995bb95","vote(uint256,bool,uint256)":"d46a5d7e","withdraw()":"3ccfd60b","withdrawLandlordRewards()":"716ccf42"},"id":29}